:100000000C94D7000C94AB060C94F4000C94F40000
:100010000C944B080C94F4000C9440080C94F400DD
:100020000C94F4000C94F4000C94F4000C94F40080
:100030000C94F4000C94C6070C94F4000C94F40097
:100040000C94EF070C94F4000C949C070C94F400AF
:100050000C94F4000C94F4000C94F4000C94F40050
:100060000C94F4000C94F400696E6600494E46004E
:100070006E616E004E414E0000407A10F35A00A0AF
:10008000724E18090010A5D4E80000E87648170061
:1000900000E40B54020000CA9A3B000000E1F505A1
:1000A000000080969800000040420F000000A086EB
:1000B00001000000102700000000E803000000001D
:1000C0006400000000000A000000000001000000C1
:1000D00000002C76D888DC674F0823DFC1DFAE59DB
:1000E000E1B1B796E5E3E453C63AE651997696E86E
:1000F000E6C28426EB898C9B62ED407C6FFCEFBCF2
:100100009C9F40F2BAA56FA5F490055A2AF75C931C
:100110006B6CF9676DC11BFCE0E40D47FEF520E652
:10012000B500D0ED902E0300943577050080841E35
:10013000080000204E0A000000C80C333333330F90
:10014000986E12831141EF8D2114893BE65516CF2D
:10015000FEE6DB18D1844B381BF77C1D901DA4BB39
:10016000E424203284725E228100C9F124ECA1E5EE
:100170003D274E414E494E495459494E46CDCCCC6F
:100180003D0AD7233C17B7D13877CC2B329595E66B
:10019000241FB14F0A000020410000C84200401C4B
:1001A0004620BCBE4CCA1B0E5AAEC59D740011241D
:1001B0001FBECFEFD4E0DEBFCDBF12E0A0E0B1E0C4
:1001C000E2E9F4E202C005900D92A232B107D9F73C
:1001D00024E0A2E2B2E001C01D92AE32B207E1F724
:1001E0000E9436080C9447120C9400002A98E09163
:1001F0000A01F0910B018FEF0995E0910A01F0914E
:100200000B018FEF0995E0910A01F0910B018FEF3F
:100210000995E0910A01F0910B018FEF099589E9A9
:1002200093E00197F1F700C00895CF93DF93809199
:1002300091028B7599F0E0910601F0910701099503
:1002400090E0A0E0B0E0DC01992788278093960237
:1002500090939702A0939802B0939902E0910601BF
:10026000F09107010995CFE8D2E04F815885698563
:100270007A85582B4F83588769877A87E0910601E2
:10028000F091070109954F81588569857A85482B3A
:100290004F83588769877A87DF91CF910895E1EC82
:1002A000F0E0808180688083EFE6F0E0808181600B
:1002B0008083EEE6F0E08081816080830895CF93B3
:1002C000DF93E0910401F091050180818F7B8083B1
:1002D000E0910401F09105018081877C8860808332
:1002E0000E944F012A98CFE8D2E0E0910A01F091F4
:1002F0000B0188810995E0910801F09109018B813A
:100300009C8109950E944F01DF91CF910895E1EC06
:10031000F0E080818F778083EEE6F0E080818E7F51
:100320008083EFE6F0E080818E7F80830895CF9315
:10033000DF93E0910401F091050180818064808366
:10034000E0910401F09105018081877C80628083C7
:100350000E9487012A98E0910A01F0910B01809197
:100360008F0209951C99FECFE0910601F0910701DB
:100370000995CFE8D2E08A830E944F018A81DF91FC
:10038000CF910895CF92DF92EF92FF92CF930E9488
:100390008701E0910A01F0910B0180918F0209958C
:1003A0001C99FECF809191028B7569F0E091060156
:1003B000F09107010995C82ED12CE12CF12C760182
:1003C000DD24CC2403C0C12CD12C7601E0910601A0
:1003D000F09107010995C82FE0910601F0910701FE
:1003E0000995C82ADC2A0E944F01C701B601CF91A6
:1003F000FF90EF90DF90CF900895CF93DF93E0913F
:100400000401F0910501808180648083E091040102
:10041000F09105018081877C886080830E9487013C
:100420002A98E0910A01F0910B0180918F020995C1
:100430001C99FECFE0910601F09107010995CFE8E4
:10044000D2E01B828C83E0910601F09107010995AF
:100450002B813C81282B3C832B830E944F018B8175
:100460009C81DF91CF910895CF93DF93E0910401B8
:10047000F0910501808180648083E0910401F09116
:1004800005018081877C806180830E9487012A9892
:10049000E0910A01F0910B0180918F0209951C995E
:1004A000FECFE0910601F09107010995CFE8D2E077
:1004B0001D828E83E0910601F091070109952D813F
:1004C0003E81282B3E832D830E944F018D819E818A
:1004D000DF91CF910895CF93DF93E0910401F091E4
:1004E000050180818F7B8083E0910401F0910501FB
:1004F0008081877C806180830E9487012A98CFE871
:10050000D2E0E0910A01F0910B0188810995E09118
:100510000801F09109018D819E8109950E944F018A
:10052000DF91CF910895CF93C82FE0910201F09110
:10053000030167708081887F682B60830E946B0253
:10054000E0910001F09101019C2F9295990F907E0E
:1005500081818F71892B8183299A81E38A95F1F7B3
:1005600000000E945F011C99FECF2998E0910401D0
:10057000F09105018081806480832A98CD7FC4300A
:1005800099F4E0910401F09105018081877C8063FA
:1005900080830E94C20160939A0270939B028093B1
:1005A0009C0290939D0211C0E0910401F09105011D
:1005B0008081886380830E94C20160939E02709351
:1005C0009F028093A0029093A102CF910895E091A1
:1005D0000C01F0910D0109952A9A219A0E94F600CA
:1005E0000E94FD010E9434020E949701E0910201E5
:1005F000F0910301818180618183E0910201F0919A
:10060000030181818F7D8183E0918801F0918901CF
:100610008081803110F08FE08083A0918801B091BB
:100620008901E2E9F2E08C91982F9F708081807FB0
:10063000892B80830E945F010E946B0260E084E04E
:100640000E94930266E084E00E9493020895CF9393
:10065000DF93C82F299A81E38A95F1F700000E9461
:100660008701E0910201F0910301C7708081887FCA
:10067000C82BC0832A98E0910001F091010181818B
:100680008F71806281830E946B020E945F011C99BE
:10069000FECFE0910401F0910501808180648083A8
:1006A000E0910401F09105018081877C886180835D
:1006B000CFE8D2E0E0910A01F0910B018881099521
:1006C0000E9415010E944F0129986F8178858985C4
:1006D0009A85DF91CF910895CF92DF92FF920F9389
:1006E0001F93CF93DF93C82FEFE8F2E005811681C7
:1006F000C380D4800E948701E0910201F091030140
:100700008C2F87709081987FF92EF82AF0822A9892
:10071000E0910201F091030181818F7E8183E0915C
:100720000001F091010181818F71806281830E94BB
:100730006B020E945F011C99FECFE0910401F091D1
:100740000501808180648083E0910401F0910501BE
:100750008081877C88618083CFE8D2E0E0910A01C4
:10076000F0910B01888109950E9415010E944F01AB
:100770001E830D83DC82CB826F81788589859A8583
:10078000DF91CF911F910F91FF90DF90CF9008954F
:10079000AAE7B0E08C9180688C93ECE7F0E0808170
:1007A0008F7D808380818F77808380818064808348
:1007B0008081807F80838081876080838C91887F27
:1007C0008C938C9187608C930895CF93DF9300D0A6
:1007D000CDB7DEB7809178008983809179008A83D4
:1007E00089819A810F900F90DF91CF910895EF92B8
:1007F000FF920F931F93CF93DF93CDB7DEB7289768
:100800000FB6F894DEBF0FBECDBFFE01319688E073
:10081000DF011D928A95E9F70AE710E07E01B9E051
:10082000EB0EF11C8D819E8198878F838B819C813B
:100830009E838D8389819A819C838B837894F80130
:10084000808180648083D8018C9184FFFCCF0E94DA
:10085000E5039A838983FE013196AC0121913191A0
:10086000821793070CF4C901241735070CF4A9016A
:10087000EE15FF0599F74A5F5F4F4817590794F245
:1008800028960FB6F894DEBF0FBECDBFDF91CF9193
:100890001F910F91FF90EF900895EF92FF921F9399
:1008A000CF93DF93A895ECE7F0E09081907F908361
:1008B0009081892B80830E94F70318E0E12CF12CB2
:1008C000CAE7D0E0A895988190649883988194FFB6
:1008D000FDCF0E94E503E80EF91E115099F7C701FC
:1008E000969587959695879596958795DF91CF9163
:1008F0001F91FF90EF900895E0918A01F0918B0194
:10090000808191818130944010F01182108208958D
:10091000CF92DF92EF92FF92CF93DF93E0918A0123
:10092000F0918B0191838083C0918A01D0918B01DA
:100930006881798180E090E00E94A40C6B017C01C9
:100940009B01AC016DEC7CEC84E890E40E94030C0C
:100950009B01AC016AE979E989E490E40E94030C07
:100960000E94750C7B836A8380E090E00E94A40C57
:100970009B01AC01C701B6010E94960B20E030E05C
:1009800048EC52E40E94030C6C837D838E839F832A
:10099000DF91CF91FF90EF90DF90CF900895CF93AC
:1009A000DF93C0918A01D0918B012A813B81821B08
:1009B000930BBC0180E090E00E94A40C2C813D814F
:1009C0004E815F810E94030C0E94750C862FDF917F
:1009D000CF910895CF92DF92EF92FF92E0918A013A
:1009E000F0918B0171836083853608F084E6682F6F
:1009F00070E080E090E00E94A60C2AE037ED43E230
:100A00005CE30E94370D2AE939E949E450E40E9489
:100A1000970B6B017C01E0918A01F0918B01808141
:100A20009181BC0180E090E00E94A40C9B01AC018C
:100A3000C701B6010E94030C9B01AC016DEC7CEC7C
:100A400084E890E40E94030C20E030E040E854E4A5
:100A50000E94320D181624F480E094E00E9488046D
:100A6000FF90EF90DF90CF900895CF93DF93EC014C
:100A70000E947C04E0918A01F0918B018081918138
:100A80008C179D0718F4CE010E948804CE010E94A5
:100A9000CF04853620F0BE0184E60E94EA04DF918F
:100AA000CF910895459A0895459808953D9A0E94DA
:100AB0005405089598B180E2892788B90895CF93A5
:100AC000C82F662329F1E0918C01F0918D0180817E
:100AD0008823B9F007C0E0918C01F0918D019081DD
:100AE000992379F0E0910E01F0910F010995E091C1
:100AF0000A03F0910B0381E090819C1751F080E094
:100B000008C0E3E3F7E03197F1F7615021F701C046
:100B100080E0CF910895E0918C01F0918D011082D9
:100B200010922702E0911601F091170180EE91E0FA
:100B30000995E0911601F091170187EA91E0099576
:100B40006FEF81E00E945F0508950F931F93CF938D
:100B5000DF938C01EB01E0918C01F0918D0110820B
:100B600010922702E0911601F09117018AEA91E0B4
:100B70000995E0911601F0911701C8010995E091DE
:100B80001401F09115018EE891E00995E0911401AE
:100B9000F0911501CE010995E0911601F091170130
:100BA00087EA91E009956FEF81E00E945F05DF9190
:100BB000CF911F910F910895CF93DF93CDB7DEB7FB
:100BC000C756D1090FB6F894DEBF0FBECDBF4AE0BD
:100BD00050E0BE016D5F7F4F90E00E94A50FBC0109
:100BE00080E991E00E94A505C959DF4F0FB6F8943E
:100BF000DEBF0FBECDBFDF91CF9108957894E09115
:100C00008601F09187018081873010F081E0808338
:100C1000E0918601F0918701A081B0E0A056BE4F1F
:100C2000E0911001F09111018C910995E091120170
:100C3000F09113010995A8950E948B0581112FC091
:100C4000E0918601F091870191E09083E091860127
:100C5000F0918701A081A73028F5B0E0A056BE4FE3
:100C6000E0911001F09111018C910995E091120130
:100C7000F09113010995A8950E948B05811111C06F
:100C8000E0918601F091870190819F5F9083E091D0
:100C90008601F0918701A081A730F8F2089581E0E4
:100CA000089581E00895CF93DF93EC01E0918C01EA
:100CB000F0918D01108210922702E0911601F091BF
:100CC00017018AEA91E00995E0911601F091170168
:100CD00085E991E00995E0911401F09115018EE804
:100CE00091E00995E0911401F0911501CE0109956B
:100CF000E0911401F09115018AE991E00995E091E4
:100D00001601F091170187EA91E009956FEF81E0F4
:100D10000E945F05DF91CF910895569A5E988FEFFC
:100D200097E40197F1F700C0000056989FEF2FE776
:100D300086E1915020408040E1F700C00000559AC4
:100D40005D9A0E94FE05811101C0FFCF81E00E94E3
:100D5000DC055D9808951F920F920FB60F92112433
:100D60002F933F934F935F936F937F938F939F93B3
:100D7000AF93BF93EF93FF93E091A202F091A30290
:100D80000995FF91EF91BF91AF919F918F917F91C5
:100D90006F915F914F913F912F910F900FBE0F90E8
:100DA0001F90189584B18C6284B98CE58CBD8DB58B
:100DB00081608DBD08958EBD0DB407FEFDCF0895F1
:100DC000CF93C82F892F0E94DB068C2F0E94DB0651
:100DD000CF9108951EBC0DB407FEFDCF8EB50895CA
:100DE000E0ECF0E0908195FFFDCF8093C600089580
:100DF0000F931F93CF93FC018081882359F08F01BB
:100E0000C0E00E94F006CF5FF801EC0FF11D808179
:100E10008111F7CFCF911F910F9108950F931F93D9
:100E2000CF93FC018081882359F08F01C0E00E949C
:100E3000F006CF5FF801EC0FF11D80818111F7CF33
:100E4000CF911F910F9108958093C400089588E970
:100E50008093C10086E08093C200089580B78068C7
:100E600080BFEFE7F0E080818360808340E251E063
:100E70006FE070E08CE093E00E94B9110E948D0653
:100E80000E94C803EEE7F0E08081876380830E94C0
:100E9000E702A998EEE6F0E0808181608083B19856
:100EA000EFE6F0E0808181608083ECE6F0E0808115
:100EB000886080838091200390912103885592401F
:100EC000893B9B4038F088E592E090932103809322
:100ED000200304C0109226021092250287E00E948F
:100EE0004D040E94350540E251E06FE070E08CE077
:100EF00093E00E94D11180E00E945D0B83E080931B
:100F0000A40286E98093A502E8E6F0E08081826091
:100F1000808316BC85B5856085BD8FED93EE90937B
:100F2000850080938400E1E8F0E080818560808323
:100F30000E94DB0AA895FCCF1F920F920FB60F926A
:100F400011242F933F934F935F936F937F938F93CE
:100F50009F93AF93BF93EF93FF938091C6009091BF
:100F60008E02911102C00E94420BFF91EF91BF913E
:100F7000AF919F918F917F916F915F914F913F9131
:100F80002F910F900FBE0F901F9018951F920F92E8
:100F90000FB60F9211242F933F938F939F938091BD
:100FA00025029091260201969093260280932502B5
:100FB00020912003309121032817390708F439982C
:100FC0008FED93EE90938500809384009F918F9195
:100FD0003F912F910F900FBE0F901F9018951F9269
:100FE0000F920FB60F9211242F933F934F935F935D
:100FF0006F937F938F939F93AF93BF93EF93FF93E1
:10100000809124028F5F809324029091A40289171B
:1010100018F40E94520502C00E94540590912402C7
:101020008091A502891710F410922402FF91EF918C
:10103000BF91AF919F918F917F916F915F914F91F0
:101040003F912F910F900FBE0F901F901895F8941D
:10105000A89588E18093600099E20FB6F894A8956E
:10106000809360000FBE909360000895399A419A72
:101070000E9427080E9456050E9452050E942E07D2
:101080001F920F920FB60F92112439980F900FBE36
:101090000F901F9018951F920F920FB60F92112468
:1010A0002F933F934F935F936F937F938F939F9370
:1010B000AF93BF93EF93FF93339B49C010922602E7
:1010C000109225020E9452052FEF8FE392E02150EB
:1010D00080409040E1F700C0000080912202909192
:1010E000230201969093230280932202339907C032
:1010F0000E945405109223021092220228C0A89543
:10110000889710F15E9A2FEF8FE392E02150804094
:101110009040E1F700C000000E9454053399FECFD3
:101120002FEF8FE39BE0215080409040E1F700C01B
:10113000000039982FEF8FE39BE0215080409040D2
:10114000E1F700C0000003C00E945A05BDCFFF9127
:10115000EF91BF91AF919F918F917F916F915F912F
:101160004F913F912F910F900FBE0F901F901895A8
:1011700080E00895DC0112969EE0EEEAF1E0019035
:101180000D929A95E1F781E00895DC0112969AE0BC
:10119000ECEBF1E001900D929A95E1F781E0089572
:1011A0001F93CF93DF93EC018A8181110CC089E2F8
:1011B00090E00E94C911BE016E5F7F4F4AE090E04F
:1011C0000E94B00F11C0CE0102960E947E0E162F13
:1011D00089E290E00E94E111E2E9F2E01F70808173
:1011E000807F182B10831A8281E0DF91CF911F91AD
:1011F00008950F931F93CF93DF93FC012281222345
:10120000B9F0EC0187E00E944D048C01CE010296FA
:101210000E94600EB8010E94EA0448E050E06BE1D1
:1012200070E088E193E00E94D1111A8281E001C050
:1012300080E0DF91CF911F910F910895AC014E5F37
:101240005F4F60912203709123038091240390915A
:1012500025032AE00E94BB0F81E00895CF93DF931E
:10126000EC0180E00E942703AE014E5F5F4F2AE051
:101270000E94BB0F81E0DF91CF910895CF93DF9360
:10128000EC018A8181111AC0AE014E5F5F4F20913F
:10129000200330912103A9E8B8E80E94C80D969573
:1012A0008795929582958F7089279F708927BC01B9
:1012B00080E090E02AE00E94BB0F14C0CE010296AD
:1012C0000E947E0E2CE3269FA001279F500D112423
:1012D0005093210340932003BA0183E290E00E94DF
:1012E000FF111A8281E0DF91CF910895CF93DF93B0
:1012F000EC0187E00E944D040E94CF04BE016E5FA6
:101300007F4F4AE090E00E94B00F81E0DF91CF91E3
:101310000895CF93DF93EC015D9ABC016E5F7F4F20
:1013200086EC91E00E94A5055D981A82DF91CF912D
:101330000895EF92FF920F931F93CF93DF93EC01E9
:101340005D9A8A81882319F18E010E5F1F4FC801B3
:101350000E94600E7C0186E08E1538F1C8010E9463
:101360005306882389F0D701BB27A056BE4FE091D2
:101370001001F09111018C9109956E2D8AE290E097
:101380000E94E11181E001C080E01A820CC08AE273
:1013900090E00E94C911BE016E5F7F4F4AE090E06D
:1013A0000E94B00F81E05D9801C080E0DF91CF9195
:1013B0001F910F91FF90EF900895CF93DF93EC0171
:1013C00086E00E946C03AE014E5F5F4F2AE00E94F0
:1013D000BB0F81E0DF91CF9108950F93CF93DF93FF
:1013E000EC018A81811110C0AE014E5F5F4F6091A8
:1013F0000C0370910D0380910E0390910F0300E098
:1014000025E00E94D70D13C0CE0102960E945C0E0B
:10141000AB01BC0140930C0350930D0360930E038A
:1014200070930F038FE090E00E94F3111A8281E025
:10143000DF91CF910F910895CF93DF93EC018A81D3
:10144000811109C044E650E06BE270E0CE010296E3
:101450000E94B91109C044E650E06BE270E0CE0191
:1014600002960E94D1111A8281E0DF91CF910895F6
:10147000CF93DF93EC018A81811109C040E250E0F3
:101480006FEA70E0CE0102960E94B91109C040E2F5
:1014900050E06FEA70E0CE0102960E94D1111A82EC
:1014A00081E0DF91CF910895CF93DF93EC018A81A2
:1014B000811109C040E250E06FEC70E0CE0102966D
:1014C0000E94B91109C040E250E06FEC70E0CE011B
:1014D00002960E94D1111A8281E0DF91CF91089586
:1014E000CF93DF93EC018A81811109C040E250E083
:1014F0006FEE70E0CE0102960E94B91109C040E281
:1015000050E06FEE70E0CE0102960E94D1111A8277
:1015100081E0DF91CF910895CF93DF93EC018A8131
:10152000811109C040E250E06FE071E0CE01029607
:101530000E94B91109C040E250E06FE071E0CE01B5
:1015400002960E94D1111A8281E0DF91CF91089515
:10155000CF93DF93EC018A81811109C040E250E012
:101560006FE870E0CE0102960E94B91109C040E216
:1015700050E06FE870E0CE0102960E94D1111A820D
:1015800081E0DF91CF910895DC01ED91FC918081A4
:1015900091810E94F80687EA91E00E94F806BFEF69
:1015A0002FE786E1B15020408040E1F700C0000005
:1015B000399880E0089580918E02882311F1E0919E
:1015C0002802F09129020380F481E02D88E292E064
:1015D0000995882381F0E0912802F0912902808109
:1015E00091810E94F8068AE292E00E94F80687EA5A
:1015F00091E00E94F80610928E021092260210923C
:1016000025020895EF92FF920F931F93CF93DF93DC
:1016100008E111E0C0E0D0E0F8016081718186EA64
:1016200092E00E948B0F892BF1F0CE01880F991F59
:10163000880F991F8C0F9D1F9C01285E3E4F309391
:10164000290220932802865E9E4F90930B0380937D
:101650000A0369EA72E08AE292E00E94840F81E064
:1016600080938E0208C021960B5F1F4FC631D105B3
:1016700099F610928E02DF91CF911F910F91FF90FA
:10168000EF9008958A3049F08D3061F4E09127029F
:10169000F0E0EA55FD4F108208950E94020B10926F
:1016A00027020895E091270291E09E0F9093270270
:1016B000F0E0EA55FD4F808308950E942703609370
:1016C00022037093230380932403909325030895AA
:1016D000CF93DF93EC0180E00E945D0B1A8281E0E2
:1016E000DF91CF9108950F931F930E9427030091DC
:1016F0002203109123032091240330912503601BC2
:10170000710B820B930B1F910F910895CF93DF9371
:10171000EC0180E00E94730BAE014E5F5F4F2AE048
:101720000E94BB0F81E0DF91CF9108955058BB27F5
:10173000AA270E94AE0B0C94F80C0E94EA0C38F019
:101740000E94F10C20F039F49F3F19F426F40C9418
:10175000E70C0EF4E095E7FB0C94E10CE92F0E94F6
:10176000090D58F3BA17620773078407950720F02D
:1017700079F4A6F50C942B0D0EF4E0950B2EBA2FF0
:10178000A02D0B01B90190010C01CA01A001112487
:10179000FF27591B99F0593F50F4503E68F11A1633
:1017A000F040A22F232F342F4427585FF3CF4695C4
:1017B00037952795A795F0405395C9F77EF41F16E6
:1017C000BA0B620B730B840BBAF09150A1F0FF0FB0
:1017D000BB1F661F771F881FC2F70EC0BA0F621F9C
:1017E000731F841F48F4879577956795B795F7958C
:1017F0009E3F08F0B0CF9395880F08F09927EE0F21
:101800009795879508950E94170C0C94F80C0E94E8
:10181000F10C58F00E94EA0C40F029F45F3F29F0E7
:101820000C94E10C51110C942C0D0C94E70C0E94BB
:10183000090D68F39923B1F3552391F3951B550BCB
:10184000BB27AA2762177307840738F09F5F5F4F93
:10185000220F331F441FAA1FA9F335D00E2E3AF0D2
:10186000E0E832D091505040E695001CCAF72BD0EA
:10187000FE2F29D0660F771F881FBB1F261737073B
:101880004807AB07B0E809F0BB0B802DBF01FF276D
:1018900093585F4F3AF09E3F510578F00C94E10C5D
:1018A0000C942C0D5F3FE4F3983ED4F38695779526
:1018B0006795B795F7959F5FC9F7880F911D969526
:1018C000879597F90895E1E0660F771F881FBB1F82
:1018D000621773078407BA0720F0621B730B840B2F
:1018E000BA0BEE1F88F7E09508950E94110D88F05D
:1018F0009F5798F0B92F9927B751B0F0E1F0660FD4
:10190000771F881F991F1AF0BA95C9F714C0B13014
:1019100091F00E942B0DB1E008950C942B0D672FD0
:10192000782F8827B85F39F0B93FCCF38695779543
:101930006795B395D9F73EF490958095709561952C
:101940007F4F8F4F9F4F0895E89409C097FB3EF457
:1019500090958095709561957F4F8F4F9F4F9923FC
:10196000A9F0F92F96E9BB279395F695879577957A
:101970006795B795F111F8CFFAF4BB0F11F460FF3A
:101980001BC06F5F7F4F8F4F9F4F16C0882311F092
:1019900096E911C0772321F09EE8872F762F05C0A6
:1019A000662371F096E8862F70E060E02AF09A9541
:1019B000660F771F881FDAF7880F9695879597F936
:1019C000089597F99F6780E870E060E008959FEFC1
:1019D00080EC089500240A941616170618060906C6
:1019E000089500240A941216130614060506089595
:1019F000092E0394000C11F4882352F0BB0F40F41D
:101A0000BF2B11F460FF04C06F5F7F4F8F4F9F4F5C
:101A1000089557FD9058440F551F59F05F3F71F0DE
:101A20004795880F97FB991F61F09F3F79F0879545
:101A30000895121613061406551FF2CF4695F1DFCE
:101A400008C0161617061806991FF1CF869571055E
:101A5000610508940895E894BB2766277727CB0192
:101A600097F908950E94A40D08F48FEF08950E943D
:101A70004A0D0C94F80C0E94EA0C38F00E94F10C0C
:101A800020F0952311F00C94E10C0C94E70C112438
:101A90000C942C0D0E94090D70F3959FC1F3950FC6
:101AA00050E0551F629FF001729FBB27F00DB11DE2
:101AB000639FAA27F00DB11DAA1F649F6627B00D72
:101AC000A11D661F829F2227B00DA11D621F739F5B
:101AD000B00DA11D621F839FA00D611D221F749F69
:101AE0003327A00D611D231F849F600D211D822FB0
:101AF000762F6A2F11249F5750409AF0F1F08823D7
:101B00004AF0EE0FFF1FBB1F661F771F881F915003
:101B10005040A9F79E3F510580F00C94E10C0C94C5
:101B20002C0D5F3FE4F3983ED4F386957795679547
:101B3000B795F795E7959F5FC1F7FE2B880F911D2D
:101B40009695879597F90895990F0008550FAA0B58
:101B5000E0E8FEEF16161706E807F907C0F01216C0
:101B60001306E407F50798F0621B730B840B950BC3
:101B700039F40A2661F0232B242B252B21F4089518
:101B80000A2609F4A140A6958FEF811D811D0895B5
:101B9000A29FB001B39FC001A39F700D811D1124AE
:101BA000911DB29F700D811D1124911D0895CF923A
:101BB000DF92FF920F931F93CF93DF93EA01F02EF2
:101BC000122F283008F017E000E0212FAE010E940C
:101BD000A50E9881292F2870DE0190FF06C02111E3
:101BE00004C011962DE228830CC0F1FE03C01196AB
:101BF0003BE204C0F0FE03C0119630E238832111AD
:101C000005C092FF0DC068E670E002C060E770E0BA
:101C1000F2FE02C06C5F7F4FCD010E947D0F43C07A
:101C2000FD01319629812C93213309F09F7E1123E8
:101C3000B9F0AE014E5F5F4F6F01312F2EE2DA0136
:101C40006D91AD01D6012D936D013150262FB9F75D
:101C50001150DF01A10FB11DFD01329611966C9359
:101C6000F2FC02C025E601C025E42083DF011296C4
:101C700087FF04C09DE29183819508C0811104C053
:101C800094FF02C09DE201C09BE2918390E38A3001
:101C90001CF09F5F8A50FBCF9C93805D11968C93C4
:101CA000119712961C92CE01DF91CF911F910F9147
:101CB000FF90DF90CF900895662777270C9423102C
:101CC000FC0188279927E89421912032E9F32930F3
:101CD00010F02E30C8F32B3241F02D3239F46894D5
:101CE00004C00E94DF0F820F911D219120532A30E2
:101CF000C0F31EF4909581959F4F08951F93FC01AA
:101D000099278827BC01E89411911032E9F3193022
:101D100010F01E30C8F31B3251F01D3249F46894A4
:101D200006C00E94CA0F610F711D811D911D119186
:101D300010531A30B0F33EF49095809570956195EC
:101D40007F4F8F4F9F4F1F910895283008F027E055
:101D50003327DA01990F311D87FD916000966105E7
:101D6000710539F432602E5F3D9330E32A95E1F737
:101D700008959F3F30F080387105610509F03C5FA0
:101D80003C5F3D93913008F08068911DDF93CF93C5
:101D90001F930F93FF92EF92192F987F9695E92F3B
:101DA00096959695E90FFF27EE52FF4F9927332717
:101DB000EE24FF24A701E70105900894079428F476
:101DC000360FE71EF81E491F511D660F771F881F2B
:101DD000991F0694A1F70590079428F4E70EF81EC2
:101DE000491F561FC11D770F881F991F661F069434
:101DF000A1F70590079428F4F80E491F561FC71F36
:101E0000D11D880F991F661F771F0694A1F70590B3
:101E1000079420F4490F561FC71FD81F990F661F3C
:101E2000771F881F0694A9F784911095177041F0C9
:101E3000D695C79557954795F794E7941A95C1F7A6
:101E4000E8E7F0E0689415901591359165919591CA
:101E500005907FE27395E118F10A430B560BC90B0D
:101E6000D009C0F7E10CF11E431F561FC91FD01D3A
:101E70007EF4703311F48A95E6CFE894015030F087
:101E8000080F0AF40027021708F4202F2395022FC9
:101E90007A3328F079E37D932A95E9F710C07D9392
:101EA0002A9589F60694979567953795179517940F
:101EB000E118F10A430B560BC90BD00998F0239592
:101EC0007E9173957A3308F070E37C932013B8F712
:101ED0007E9170617D9330F0839571E37D9370E323
:101EE0002A95E1F71124EF90FF900F911F91CF9168
:101EF000DF91992787FD90950895FB01DC010590FE
:101F00000D920020E1F70895FB01DC0101900D9294
:101F10000020E1F70895FB0151915523A9F0BF017D
:101F2000DC014D9145174111E1F759F4CD010190C4
:101F3000002049F04D9140154111C9F3FB014111B9
:101F4000EFCF81E090E0019708954532510520F4EC
:101F5000423010F00C94B00FFB011082CB010895B9
:101F6000BB274A3031F4992322F4BDE29095819544
:101F70009F4F0C940A10BB272A3051F4992342F446
:101F8000BDE290958095709561957F4F8F4F9F4FE3
:101F90000C94E80F592F482F372F262F660F771FE5
:101FA000881F991F660F771F881F991F620F731F65
:101FB000841F951F660F771F881F991F08957AE069
:101FC000979F902D879F802D910D11240895BB27F9
:101FD000FA01A62F6217710581059105330B30FBBD
:101FE00066F0AA27660F771F881F991FAA1FA217DE
:101FF00010F0A21B63953850A9F7A05DAA3308F032
:10200000A95DA19336F7B111B1931082CA010C9466
:10201000A111BB27FB015527AA27880F991FAA1FCB
:10202000A41710F0A41B83955051B9F7A05DAA33F3
:1020300008F0A95DA193009779F7B111B1931192BE
:10204000CB010C94A111A0E0B0E0E9E2F0E10C9426
:102050001412EC017B016115710519F0DB018D9300
:102060009C938E010F5F1F4F7880872D90E00E9418
:102070008011892B11F0E801F4CFBDE27B1205C07D
:102080000F5F1F4F7980C1E008C0EBE27E1204C0F1
:102090008E010E5F1F4F7980C0E06801F1E0CF1A1A
:1020A000D10843E050E06AE771E0C6010E9489115F
:1020B000892BF1F4680122E0C20ED11C45E050E00A
:1020C00065E771E0C6010E948911892B21F468013E
:1020D00087E0C80ED11CE114F10419F0D701CD92AC
:1020E000DC92C111FFC060E070E080E89FE703C1AF
:1020F00043E050E062E771E0C6010E948911892B3C
:1021000051F4E114F10409F4F2C00E5F1F4FF7011E
:1021100011830083ECC0680160E070E0CB0100E057
:1021200010E0F601D0EDD70DDA3058F52C2F2260F3
:10213000622E2C2F2870C2FF05C0211128C00F5F0E
:102140001F4F25C0222311F001501109A5E0B0E076
:102150009B01AC010E9405124B015C01880C991C8B
:10216000AA1CBB1CC501B4016D0F711D811D911D01
:102170006839A9E97A078A07A9E19A0740F0C66099
:1021800005C0DE3F51F4C3FD44C0C8606C2EBFEFF4
:10219000CB1ADB0A7080C62DC4CF2D2F2F7D2531A1
:1021A000C1F540814D3211F4C06106C04B3221F0BF
:1021B000319621E030E006C03296D60111964C915E
:1021C00022E030E0A0EDA40FAA3018F0E21BF30BE0
:1021D00020C040E050E04038BCE05B075CF49A016E
:1021E000220F331F220F331F420F531F440F551F5F
:1021F0004A0F511D3196DF0111972C91A0EDA20FCE
:10220000AA3048F3C4FF03C0519541955109040F0A
:10221000151FC1FF07C0E114F10421F03197D70168
:10222000ED93FC930E94A40CC370C33019F06B01B2
:102230007C0106C06B017C01F7FAF094F7F8F0948A
:1022400020E030E0A901C701B6010E94B111882346
:1022500009F445C017FF06C0119501951109C1E9A0
:10226000D1E002C0C9EAD1E05E01B8E1AB1AB10821
:102270004601BE2DAF2D90E2E92EF12C0E151F0563
:1022800084F0FE012591359145915491B4018B2F35
:102290009A2F0E94370D4B01B82FA92F0E191F0935
:1022A000EDCF2497F594E794CA15DB0539F764015F
:1022B000EB2EFA2E8E2D880F8F2D881F8F3F49F021
:1022C00020E030E0A901C701B6010E94B1118111DF
:1022D00006C082E290E090932D0480932C04C70105
:1022E000B60109C060E070E080E89FEF04C060E0E4
:1022F00070E080EC9FE7CDB7DEB7EEE00C943012D3
:1023000091110C94B611803219F089508550C8F79C
:102310000895FB01DC014150504088F08D918134DB
:102320001CF08B350CF4805E659161341CF06B35CC
:102330000CF4605E861B611171F3990B0895881B84
:10234000FCCFDC01FC01672F71917723E1F7329715
:1023500004C07C916D9370836291AE17BF07C8F380
:1023600008950E94A40D08F481E008959927882714
:102370000895DC01CB01FC01F999FECF06C0F2BD46
:10238000E1BDF89A319600B40D9241505040B8F733
:102390000895F999FECF92BD81BDF89A992780B52D
:1023A0000895DC01A40FB51F4150504048F0CB0107
:1023B000840F951F2E910E94E21141505040D0F79A
:1023C0000895262FF999FECF92BD81BDF89A019705
:1023D00000B4021639F01FBA20BD0FB6F894FA9A6D
:1023E000F99A0FBE08950396272F0E94E2110E94CA
:1023F000E111252F0E94E211242F0C94E211019685
:10240000272F0E94E2110C94E1110E94C80DA59F94
:10241000900DB49F900DA49F800D911D11240895DF
:102420002F923F924F925F926F927F928F929F92E4
:10243000AF92BF92CF92DF92EF92FF920F931F93D2
:10244000CF93DF93CDB7DEB7CA1BDB0B0FB6F89483
:10245000DEBF0FBECDBF09942A88398848885F84C3
:102460006E847D848C849B84AA84B984C884DF8034
:10247000EE80FD800C811B81AA81B981CE0FD11D18
:102480000FB6F894DEBF0FBECDBFED010895F894EE
:02249000FFCF7C
:10249200920294028F02EA06E006DB06D206DB0A0B
:1024A200240727070E07F806CB010C860BCF01067F
:1024B2007609D3010FDD09D7010D680BDB0109BADB
:1024C20008DF01111C0AE30101B808E60103D00884
:1024D200EA01043E09EE0105F908F20113380AF691
:1024E2000114540AFA0115700AFE01168C0A02023E
:1024F20007890906020899090A020AC5080E020B91
:102502002E0912020E1E09160210ED091A0217C434
:102512000A1E0219A80A2703260318038E023D0089
:10252200434D4F440055415254002C312C322C0063
:102532005F2F170B0703010D0A0041542B0057654B
:10254200696768745363616C65733400484330345F
:102552002E33362E36004E414D450044434F004740
:1025620042540044544D0053434F005652530044CA
:102572004154004F4B0046414400544F46004342F1
:1025820054005347440055474400504744005048C4
:102592004E00534E410042535400485257004443A8
:1025A200480047434F0043544D00504F460053529A
:0225B2004300E4
:00000001FF
