:100000000C94D7000C94F4000C94F4000C94F400BD
:100010000C945C080C94F4000C9438080C94F400D4
:100020000C94F4000C94F4000C94F4000C94F40080
:100030000C94F4000C94A0070C94F4000C94F400BD
:100040000C94DA070C94F4000C9476070C94F400EA
:100050000C94F4000C94F4000C94F4000C94F40050
:100060000C94F4000C94F400696E6600494E46004E
:100070006E616E004E414E0000407A10F35A00A0AF
:10008000724E18090010A5D4E80000E87648170061
:1000900000E40B54020000CA9A3B000000E1F505A1
:1000A000000080969800000040420F000000A086EB
:1000B00001000000102700000000E803000000001D
:1000C0006400000000000A000000000001000000C1
:1000D00000002C76D888DC674F0823DFC1DFAE59DB
:1000E000E1B1B796E5E3E453C63AE651997696E86E
:1000F000E6C28426EB898C9B62ED407C6FFCEFBCF2
:100100009C9F40F2BAA56FA5F490055A2AF75C931C
:100110006B6CF9676DC11BFCE0E40D47FEF520E652
:10012000B500D0ED902E0300943577050080841E35
:10013000080000204E0A000000C80C333333330F90
:10014000986E12831141EF8D2114893BE65516CF2D
:10015000FEE6DB18D1844B381BF77C1D901DA4BB39
:10016000E424203284725E228100C9F124ECA1E5EE
:100170003D274E414E494E495459494E46CDCCCC6F
:100180003D0AD7233C17B7D13877CC2B329595E66B
:10019000241FB14F0A000020410000C84200401C4B
:1001A0004620BCBE4CCA1B0E5AAEC59D740011241D
:1001B0001FBECFEFD4E0DEBFCDBF12E0A0E0B1E0C4
:1001C000E0EBF7E202C005900D92AA38B107D9F72B
:1001D00024E0AAE8B2E001C01D92A539B207E1F718
:1001E0000E9421080C94D6130C9400002A98E091E8
:1001F0000A01F0910B018FEF0995E0910A01F0914E
:100200000B018FEF0995E0910A01F0910B018FEF3F
:100210000995E0910A01F0910B018FEF099589E9A9
:1002200093E00197F1F700C00895CF93DF93809199
:10023000F9028B7599F0E0910601F091070109959B
:1002400090E0A0E0B0E0DC01992788278093FE02CF
:100250009093FF02A0930003B0930103E091060185
:10026000F09107010995C7EFD2E04F815885698564
:100270007A85582B4F83588769877A87E0910601E2
:10028000F091070109954F81588569857A85482B3A
:100290004F83588769877A87DF91CF910895E1EC82
:1002A000F0E0808180688083EFE6F0E0808181600B
:1002B0008083EEE6F0E08081816080830895CF93B3
:1002C000DF93E0910401F091050180818F7B8083B1
:1002D000E0910401F09105018081877C8860808332
:1002E0000E944F012A98C7EFD2E0E0910A01F091F5
:1002F0000B0188810995E0910801F09109018B813A
:100300009C8109950E944F01DF91CF910895E1EC06
:10031000F0E080818F778083EEE6F0E080818E7F51
:100320008083EFE6F0E080818E7F80830895CF9315
:10033000DF93E0910401F091050180818064808366
:10034000E0910401F09105018081877C80628083C7
:100350000E9487012A98E0910A01F0910B01809197
:10036000F70209951C99FECFE0910601F091070173
:100370000995C7EFD2E08A830E944F018A81DF91FD
:10038000CF910895CF92DF92EF92FF92CF930E9488
:100390008701E0910A01F0910B018091F702099524
:1003A0001C99FECF8091F9028B7569F0E0910601EE
:1003B000F09107010995C82ED12CE12CF12C760182
:1003C000DD24CC2403C0C12CD12C7601E0910601A0
:1003D000F09107010995C82FE0910601F0910701FE
:1003E0000995C82ADC2A0E944F01C701B601CF91A6
:1003F000FF90EF90DF90CF900895CF93DF93E0913F
:100400000401F0910501808180648083E091040102
:10041000F09105018081877C886080830E9487013C
:100420002A98E0910A01F0910B018091F702099559
:100430001C99FECFE0910601F09107010995C7EFE5
:10044000D2E01B828C83E0910601F09107010995AF
:100450002B813C81282B3C832B830E944F018B8175
:100460009C81DF91CF910895CF93DF93E0910401B8
:10047000F0910501808180648083E0910401F09116
:1004800005018081877C806180830E9487012A9892
:10049000E0910A01F0910B018091F70209951C99F6
:1004A000FECFE0910601F09107010995C7EFD2E078
:1004B0001D828E83E0910601F091070109952D813F
:1004C0003E81282B3E832D830E944F018D819E818A
:1004D000DF91CF910895CF93DF93E0910401F091E4
:1004E000050180818F7B8083E0910401F0910501FB
:1004F0008081877C806180830E9487012A98C7EF72
:10050000D2E0E0910A01F0910B0188810995E09118
:100510000801F09109018D819E8109950E944F018A
:10052000DF91CF910895CF93C82FE0910201F09110
:10053000030167708081887F682B60830E946B0253
:10054000E0910001F09101019C2F9295990F907E0E
:1005500081818F71892B8183299A81E38A95F1F7B3
:1005600000000E945F011C99FECF2998E0910401D0
:10057000F09105018081806480832A98CD7FC4300A
:1005800099F4E0910401F09105018081877C8063FA
:1005900080830E94C20160930203709303038093DF
:1005A00004039093050311C0E0910401F09105014B
:1005B0008081886380830E94C201609306037093E8
:1005C00007038093080390930903CF910895E09166
:1005D0000C01F0910D0109952A9A219A0E94F600CA
:1005E0000E94FD010E9434020E949701E0910201E5
:1005F000F0910301818180618183E0910201F0919A
:10060000030181818F7D8183E091B501F091B60175
:100610008081803110F08FE08083A091B501B0918E
:10062000B601EAEFF2E08C91982F9F708081807F75
:10063000892B80830E945F010E946B0260E084E04E
:100640000E94930266E084E00E9493020895CF9393
:10065000DF93C82F299A81E38A95F1F700000E9461
:100660008701E0910201F0910301C7708081887FCA
:10067000C82BC0832A98E0910001F091010181818B
:100680008F71806281830E946B020E945F011C99BE
:10069000FECFE0910401F0910501808180648083A8
:1006A000E0910401F09105018081877C886180835D
:1006B000C7EFD2E0E0910A01F0910B018881099522
:1006C0000E9415010E944F0129986F8178858985C4
:1006D0009A85DF91CF910895CF92DF92FF920F9389
:1006E0001F93CF93DF93C82FE7EFF2E005811681C8
:1006F000C380D4800E948701E0910201F091030140
:100700008C2F87709081987FF92EF82AF0822A9892
:10071000E0910201F091030181818F7E8183E0915C
:100720000001F091010181818F71806281830E94BB
:100730006B020E945F011C99FECFE0910401F091D1
:100740000501808180648083E0910401F0910501BE
:100750008081877C88618083C7EFD2E0E0910A01C5
:10076000F0910B01888109950E9415010E944F01AB
:100770001E830D83DC82CB826F81788589859A8583
:10078000DF91CF911F910F91FF90DF90CF9008954F
:10079000AAE7B0E08C9180688C93ECE7F0E0808170
:1007A0008F7D808380818F77808380818064808348
:1007B0008081807F80838081876080838C91887F27
:1007C0008C938C9187608C930895A2E0B0E0EBEE5F
:1007D000F3E00C94860F80917800898380917900F2
:1007E0008A8389819A812296E2E00C94A20FA8E084
:1007F000B0E0EDEFF3E00C94820FFE01319688E05B
:10080000DF011D928A95E9F70AE710E07E01B9E061
:10081000EB0EF11C8D819E8198878F838B819C814B
:100820009E838D8389819A819C838B837894F80140
:10083000808180648083D8018C9184FFFCCF0E94EA
:10084000E5039A838983FE013196AC0121913191B0
:10085000821793070CF4C901241735070CF4A9017A
:10086000EE15FF0599F74A5F5F4F4817590794F255
:100870002896E6E00C949E0FEF92FF921F93CF9381
:10088000DF93A895ECE7F0E09081907F90839081D2
:10089000892B80830E94F70318E0E12CF12CCAE732
:1008A000D0E0A895988190649883988194FFFDCFBB
:1008B0000E94E503E80EF91E115099F7C7019695BD
:1008C00087959695879596958795DF91CF911F91FE
:1008D000FF90EF900895E091B701F091B801808109
:1008E00091818130944010F0118210820895CF924E
:1008F000DF92EF92FF92CF93DF93E091B701F091F7
:10090000B80191838083C091B701D091B80168810B
:10091000798180E090E00E94430E6B017C019B0195
:10092000AC016DEC7CEC84E890E40E94A20D9B018C
:10093000AC016AE979E989E490E40E94A20D0E9481
:10094000140E7B836A8380E090E00E94430E9B013B
:10095000AC01C701B6010E94300D20E030E048EC48
:1009600052E40E94A20D6C837D838E839F83DF916E
:10097000CF91FF90EF90DF90CF900895CF93DF93CA
:10098000C091B701D091B8012A813B81821B930BA2
:10099000BC0180E090E00E94430E2C813D814E819D
:1009A0005F810E94A20D0E94140E862FDF91CF91CD
:1009B0000895CF92DF92EF92FF92E091B701F0910C
:1009C000B80171836083853608F084E6682F70E093
:1009D00080E090E00E94450E2AE037ED43E25CE3C0
:1009E0000E94FA0E2AE939E949E450E40E94310DE7
:1009F0006B017C01E091B701F091B8018081918198
:100A0000BC0180E090E00E94430E9B01AC01C70155
:100A1000B6010E94A20D9B01AC016DEC7CEC84E858
:100A200090E40E94A20D20E030E040E854E40E94EF
:100A3000F50E181624F480E094E00E947704FF90ED
:100A4000EF90DF90CF900895CF93DF93EC010E9459
:100A50006B04E091B701F091B801808191818C170E
:100A60009D0718F4CE010E947704CE010E94BE04B7
:100A7000853620F0BE0184E60E94D904DF91CF9133
:100A800008955B9A08955B980895539A0E944305D0
:100A900008959BB188E089278BB90895E091B90149
:100AA000F091BA01108210928F025A9AEFEFF7E498
:100AB0003197F1F700C000005A98FFEF2FE736E1B9
:100AC000F15020403040E1F700C00000882331F1B0
:100AD000E091B901F091BA0190819923B9F007C072
:100AE000E091B901F091BA019081992379F0E091F8
:100AF0000E01F0910F010995E0919104F09192049B
:100B000081E09081913059F080E00895E3E3F7E0CF
:100B10003197F1F7815021F78AE008958AE008952E
:100B2000FF920F931F93CF93DF938C01F62EEA0170
:100B3000E091B901F091BA01108210928F02E09118
:100B40001601F09117018CEC91E00995E0911601E6
:100B5000F0911701C8010995E0911601F091170174
:100B600089EC91E00995209739F1A895E091B901B8
:100B7000F091BA0180818823B9F008C0A895E0916E
:100B8000B901F091BA018081882371F0E0910E01E2
:100B9000F0910F010995E0919104F0919204808108
:100BA0008F1561F080E00BC083E397E00197F1F7C8
:100BB000219721F78AE003C08AE001C088E0CDB721
:100BC000DEB7E5E00C949F0FEF92FF920F931F9317
:100BD000CF93DF937C018B01D42FC22FE091B90119
:100BE000F091BA01108210928F02E0911601F091FB
:100BF00017018CEC91E00995E0911601F091170135
:100C0000C7010995E0911401F0911501C8010995FA
:100C1000E0911601F091170189EC91E00995CC2340
:100C200029F1E091B901F091BA0180818823B1F0F6
:100C300007C0E091B901F091BA018081882371F079
:100C4000E0910E01F0910F010995E0919104F0916E
:100C5000920480818D1761F080E00BC083E397E000
:100C60000197F1F7C15029F78AE003C08AE001C07B
:100C700088E0CDB7DEB7E6E00C949E0FCF93C82F87
:100C80007894E091B301F091B4018081863010F046
:100C900081E08083E091B301F091B401A081B0E0E4
:100CA000AD53BE4FE0911001F09111018C91099567
:100CB000E0911201F09113010995A8958C2F0E94E3
:100CC0004E05813089F1E091B301F091B40181E0EA
:100CD0008083E091B301F091B401A081A63030F59A
:100CE000B0E0AD53BE4FE0911001F09111018C9135
:100CF0000995E0911201F09113010995A8958C2FA7
:100D00000E944E058130A1F0E091B301F091B40151
:100D100090819F5F9083E091B301F091B401A08135
:100D2000A630F0F289E005C088E003C089E001C088
:100D300088E0CF910895529A88EC0E943E06883050
:100D400009F0FFCF44E650E068E08BEB91E00E94B1
:100D5000900544E650E068E08FEB91E00E9490053A
:100D60000895399A419A08953998089584B18C620A
:100D700084B98CE58CBD8DB581608DBD08958EBD27
:100D80000DB407FEFDCF0895CF93C82F892F0E9481
:100D9000BF068C2F0E94BF06CF9108951EBC0DB4D4
:100DA00007FEFDCF8EB50895E0ECF0E0908195FF51
:100DB000FDCF8093C60008950F931F93CF93FC013E
:100DC0008081882359F08F01C0E00E94D406CF5F54
:100DD000F801EC0FF11D80818111F7CFCF911F91A8
:100DE0000F9108950F931F93CF93FC018081882367
:100DF00059F08F01C0E00E94D406CF5FF801EC0FDC
:100E0000F11D80818111F7CFCF911F910F9108952E
:100E10008093C400089588E98093C10086E08093A0
:100E2000C200089580B7806880BF40E251E060E072
:100E300070E081E793E00E947F130E949B060E946E
:100E4000C8030E94E702A998EEE6F0E08081816085
:100E50008083B198EFE6F0E0808181608083ECE6EA
:100E6000F0E0808188608083809185039091860383
:100E700088559240893B9B4038F088E592E09093FA
:100E800086038093850304C010928E0210928D0217
:100E900087E00E943C040E94240540E251E060E0AB
:100EA00070E081E793E00E94971380E00E94DD0CE0
:100EB00083E080930B0386E980930C03E8E6F0E07F
:100EC00080818260808316BC85B5856085BD8FED8D
:100ED00093EE9093850080938400E1E8F0E08081B8
:100EE000856080830E945C0CA895FCCF1F920F92B6
:100EF0000FB60F9211242F933F934F935F936F93ED
:100F00007F938F939F93AF93BF93EF93FF938091C2
:100F1000C6009091F602911102C00E94C20CFF918E
:100F2000EF91BF91AF919F918F917F916F915F9161
:100F30004F913F912F910F900FBE0F901F901895DA
:100F40001F920F920FB60F9211242F933F934F933E
:100F50005F936F937F938F939F93AF93BF93EF9321
:100F6000FF9380918D0290918E02019690938E0254
:100F700080938D02209185033091860328173907CD
:100F800010F40E94B4068FED93EE90938500809349
:100F90008400FF91EF91BF91AF919F918F917F91CD
:100FA0006F915F914F913F912F910F900FBE0F90D6
:100FB0001F9018951F920F920FB60F9211242F9326
:100FC0003F934F935F936F937F938F939F93AF93D1
:100FD000BF93EF93FF9380918C028F5F80938C027D
:100FE00090910B03891718F40E94410502C00E94DA
:100FF000430590918C0280910C03891710F4109294
:101000008C02FF91EF91BF91AF919F918F917F9152
:101010006F915F914F913F912F910F900FBE0F9065
:101020001F901895F894A89588E18093600099E244
:101030000FB6F894A895809360000FBE909360005F
:1010400008950E94B10685E0E0EDF1E0ADE0B3E087
:1010500001900D928A95E1F70E94830C0E945C0C2E
:101060000E9412080E9445050E9441050E94120735
:101070001F920F920FB60F9211242F933F934F930D
:101080005F936F937F938F939F93AF93BF93EF93F0
:10109000FF930E94B406FF91EF91BF91AF919F9192
:1010A0008F917F916F915F914F913F912F910F9011
:1010B0000FBE0F901F9018951F920F920FB60F92B0
:1010C00011242F933F934F935F936F937F938F934D
:1010D0009F93AF93BF93EF93FF93339B6BC010929B
:1010E0008E0210928D020E9441052FEF8FE392E055
:1010F000215080409040E1F700C0000080918A02BA
:1011000090918B02019690938B0280938A0233997F
:1011100007C00E94430510928B0210928A024AC0B7
:10112000A895889708F443C02FEF8FE191E02150F4
:1011300080409040E1F700C0000044E650E068E0E5
:1011400085ED91E00E9490052FEF8FE392E0215012
:1011500080409040E1F700C0000044E650E066E0C7
:1011600089ED91E00E9490055A9A2FEF8FE392E06B
:10117000215080409040E1F700C000000E944305EC
:101180003399FECF2FEF8FE39BE0215080409040BA
:10119000E1F700C000000E94B4062FEF8FE39BE050
:1011A000215080409040E1F700C0000003C00E9441
:1011B00049059BCFFF91EF91BF91AF919F918F9187
:1011C0007F916F915F914F913F912F910F900FBE43
:1011D0000F901F90189580E0089580E0089580E0BA
:1011E0000895DC0112969EE0EDEDF1E001900D9284
:1011F0009A95E1F781E00895DC0112969BE0EBEE11
:10120000F1E001900D929A95E1F781E0089524E6CE
:1012100048E066EF71E088EF91E00E94E40580E02D
:10122000089524E648E06CEF71E081E092E00E94CE
:10123000E40580E0089544E650E068E08FEB91E03B
:101240000E94900580E0089544E650E068E085E063
:1012500092E00E94900583E080930B0386E48093E4
:101260000C0380E0089544E650E068E08FEB91E0E5
:101270000E94900583E080930B0386E980930C0322
:1012800080E0089502960E94541060930A0380E063
:1012900008951F93CF93DF93EC018A8181110DC0D4
:1012A0008AE190E00E948F13BE016E5F7F4F4AE09B
:1012B00090E00E947B1181E016C0CE0102960E9450
:1012C0005410162F603170F48AE190E00E94A71349
:1012D000EAEFF2E01F708081807F182B10831A8262
:1012E00081E001C080E0DF91CF911F9108950F93BD
:1012F0001F93CF93DF93FC0122812223B9F0EC01ED
:1013000087E00E943C048C01CE0102960E943610B8
:10131000B8010E94D90448E050E06CE070E08DE72D
:1013200093E00E9497131A8281E001C080E0DF9170
:10133000CF911F910F910895AC014E5F5F4F609167
:101340008703709188038091890390918A032AE032
:101350000E94861181E00895CF93DF93EC0180E035
:101360000E942703AE014E5F5F4F2AE00E94861164
:1013700081E0DF91CF910895CF93DF93EC018A81D3
:1013800081111AC0AE014E5F5F4F209185033091ED
:101390008603A9E8B8E80E94670F9695879592950D
:1013A00082958F7089279F708927BC0180E090E02B
:1013B0002AE00E9486112BC0CE0102960E94541092
:1013C0002CE3269FA001279F500D112450938603E4
:1013D00040938503483582E0580738F488E592E069
:1013E000909386038093850309C041315E4030F0BD
:1013F00080E19EE09093860380938503609185034E
:101400007091860384E190E00E94C5131A8281E006
:10141000DF91CF910895CF93DF93EC0187E00E9495
:101420003C040E94BE04BE016E5F7F4F4AE090E024
:101430000E947B1181E0DF91CF9108951F93CF939C
:10144000DF93EC0129E989E591E02150804090404B
:10145000E1F7000044E650E068E085ED91E00E948D
:101460009005883059F52FEF8FE392E021508040AE
:101470009040E1F700C0000024E648E0BE016E5F46
:101480007F4F89E092E00E94E405182F2FEF8FE351
:1014900092E0215080409040E1F700C0000044E617
:1014A00050E068E085E092E00E949005883041F4C9
:1014B00081E0183009F080E01A8203C080E001C0AA
:1014C00080E0DF91CF911F910895A5E0B0E0EBE6B9
:1014D000FAE00C94800F8C01DC01ED91FC9185E029
:1014E000DE01119601900D928A95E1F7F801828153
:1014F000882309F455C07801F2E0EF0EF11CC70112
:101500000E9436106C018FEF8C0D853008F05CC0A6
:1015100029E989E591E0215080409040E1F7000001
:1015200044E650E068E085ED91E00E949005883047
:1015300009F04CC028EC48E0B7018DE092E00E9431
:10154000E405883091F4D601BB27AD53BE4FE0913E
:101550001001F09111018C9109956C2D8BE190E0B7
:101560000E94A713FF24F39401C0F12CA895AFEFBC
:10157000BFEFE6E8A150B040E040E1F700C0000056
:101580004CE251E068E085E092E00E9490058830EE
:10159000F9F4D80112961C92F1100FC080E01CC023
:1015A0008BE190E00E948F134AE0B8016E5F7F4F9D
:1015B00090E00E947B11FF24F394CE010196F80184
:1015C000918380838F2D08C080E006C080E004C036
:1015D000D80112961C9280E02596E8E00C949C0FAE
:1015E000A0E0B0E0E6EFFAE00C94800FFC0122816D
:1015F000222309F45FC0EC018C010E5F1F4FC8016C
:101600000E943610BC01990F880B990B0E94450E61
:101610006B017C0120E030E04CE852EC0E949D0D13
:1016200088230CF449C020E030E040E850E4C701D2
:10163000B6010E94F50E18160CF440C0F9E929E530
:1016400031E0F15020403040E1F7000044E650E046
:1016500068E085ED91E00E949005883089F528ECDE
:1016600048E0B80181E192E00E94E405182F8FEF75
:101670009FEFE8E081509040E040E1F700C00000BB
:101680004CE251E068E085E092E00E9490058830ED
:1016900029F491E0183019F090E001C090E0F9E9E8
:1016A00029E531E0F15020403040E1F700001A8296
:1016B000892F07C080E005C080E003C080E001C042
:1016C00080E0CDB7DEB7E8E00C949C0FCF93DF93BA
:1016D000EC0186E00E946C03AE014E5F5F4F2AE092
:1016E0000E94861181E0DF91CF9108950F93CF93EF
:1016F000DF93EC018A81811110C0AE014E5F5F4F14
:1017000060917103709172038091730390917403DF
:1017100000E025E00E94AD0F13C0CE0102960E94AA
:101720003210AB01BC01409371035093720360937C
:1017300073037093740380E090E00E94B9131A82DF
:1017400081E0DF91CF910F910895CF93DF93EC016A
:101750008A81811109C044E650E06CE170E0CE015D
:1017600002960E947F1309C044E650E06CE170E0ED
:10177000CE0102960E9497131A8281E0DF91CF91E9
:101780000895CF93DF93EC018A81811109C040E273
:1017900050E060EA70E0CE0102960E947F1309C01B
:1017A00040E250E060EA70E0CE0102960E9497139A
:1017B0001A8281E0DF91CF910895CF93DF93EC01FE
:1017C0008A81811109C040E250E060EC70E0CE01F6
:1017D00002960E947F1309C040E250E060EC70E086
:1017E000CE0102960E9497131A8281E0DF91CF9179
:1017F0000895CF93DF93EC018A81811109C040E203
:1018000050E060EE70E0CE0102960E947F1309C0A6
:1018100040E250E060EE70E0CE0102960E94971325
:101820001A8281E0DF91CF910895CF93DF93EC018D
:101830008A81811109C040E250E060E071E0CE0190
:1018400002960E947F1309C040E250E060E071E020
:10185000CE0102960E9497131A8281E0DF91CF9108
:101860000895CF93DF93EC018A81811109C040E292
:1018700050E060E870E0CE0102960E947F1309C03C
:1018800040E250E060E870E0CE0102960E949713BB
:101890001A8281E0DF91CF910895DC01ED91FC91F6
:1018A000808191810E94DC0689EC91E00E94DC0637
:1018B0000E94B40680E008958091F602882311F119
:1018C000E0919002F09191020380F481E02D80E993
:1018D00092E00995882381F0E0919002F0919102C5
:1018E000808191810E94DC0682E992E00E94DC0600
:1018F00089EC91E00E94DC061092F60210928E02B2
:1019000010928D020895EF92FF920F931F93CF9341
:10191000DF9308E111E0C0E0D0E07E01F8016081D2
:1019200071818DE093E00E946111892BF1F0CE016D
:10193000880F991F880F991F8C0F9D1F9C01285E8F
:101940003E4F3093910220939002865E9E4F90937B
:1019500092048093910460E173E082E992E00E9436
:101960005A1181E08093F60208C021960B5F1F4F49
:10197000CF31D10591F61092F602CDB7DEB7E6E091
:101980000C949E0F8A3049F08D3061F4E0918F0203
:10199000F0E0E35FFC4F108208950E94830C1092E8
:1019A0008F020895E0918F0291E09E0F90938F0235
:1019B000F0E0E35FFC4F80830895CF92DF92EF92D7
:1019C000FF92CF93C82FA8950E9427036B017C013B
:1019D000A8958C2F0E942703C60ED71EE81EF91E5D
:1019E000F694E794D794C794C0928703D092880363
:1019F000E0928903F0928A03CF91FF90EF90DF90FD
:101A0000CF900895CF93DF93EC0180E00E94DD0C2E
:101A10001A8281E0DF91CF9108950F931F930E9466
:101A20002703009187031091880320918903309147
:101A30008A03601B710B820B930B1F910F9108950A
:101A4000CF93DF93EC0180E00E940D0DAE014E5F5D
:101A50005F4F2AE00E94861181E0DF91CF910895C7
:101A60005058BB27AA270E94480D0C94BB0E0E9419
:101A7000AD0E38F00E94B40E20F039F49F3F19F4F7
:101A800026F40C94AA0E0EF4E095E7FB0C94A40E39
:101A9000E92F0E94CC0E58F3BA1762077307840728
:101AA000950720F079F4A6F50C94EE0E0EF4E0956F
:101AB0000B2EBA2FA02D0B01B90190010C01CA0108
:101AC000A0011124FF27591B99F0593F50F4503EB3
:101AD00068F11A16F040A22F232F342F4427585FA5
:101AE000F3CF469537952795A795F0405395C9F7BD
:101AF0007EF41F16BA0B620B730B840BBAF0915075
:101B0000A1F0FF0FBB1F661F771F881FC2F70EC013
:101B1000BA0F621F731F841F48F4879577956795E6
:101B2000B795F7959E3F08F0B0CF9395880F08F0D2
:101B30009927EE0F9795879508950E94800E08F4D7
:101B400081E008950E94B60D0C94BB0E0E94B40E65
:101B500058F00E94AD0E40F029F45F3F29F00C943C
:101B6000A40E51110C94EF0E0C94AA0E0E94CC0EF0
:101B700068F39923B1F3552391F3951B550BBB27BC
:101B8000AA2762177307840738F09F5F5F4F220F01
:101B9000331F441FAA1FA9F335D00E2E3AF0E0E8F8
:101BA00032D091505040E695001CCAF72BD0FE2F42
:101BB00029D0660F771F881FBB1F261737074807D6
:101BC000AB07B0E809F0BB0B802DBF01FF2793588E
:101BD0005F4F3AF09E3F510578F00C94A40E0C94A0
:101BE000EF0E5F3FE4F3983ED4F3869577956795C3
:101BF000B795F7959F5FC9F7880F911D96958795C3
:101C000097F90895E1E0660F771F881FBB1F6217E1
:101C100073078407BA0720F0621B730B840BBA0B9F
:101C2000EE1F88F7E09508950E94D40E88F09F5724
:101C300098F0B92F9927B751B0F0E1F0660F771FF0
:101C4000881F991F1AF0BA95C9F714C0B13091F0E6
:101C50000E94EE0EB1E008950C94EE0E672F782FDF
:101C60008827B85F39F0B93FCCF3869577956795AB
:101C7000B395D9F73EF490958095709561957F4F17
:101C80008F4F9F4F0895E89409C097FB3EF49095BD
:101C90008095709561957F4F8F4F9F4F9923A9F045
:101CA000F92F96E9BB279395F695879577956795D4
:101CB000B795F111F8CFFAF4BB0F11F460FF1BC018
:101CC0006F5F7F4F8F4F9F4F16C0882311F096E9AB
:101CD00011C0772321F09EE8872F762F05C0662359
:101CE00071F096E8862F70E060E02AF09A95660F12
:101CF000771F881FDAF7880F9695879597F90895CB
:101D0000990F0008550FAA0BE0E8FEEF161617060C
:101D1000E807F907C0F012161306E407F50798F074
:101D2000621B730B840B950B39F40A2661F0232B8D
:101D3000242B252B21F408950A2609F4A140A69509
:101D40008FEF811D811D089597F99F6780E870E0EE
:101D500060E008959FEF80EC089500240A94161621
:101D6000170618060906089500240A941216130689
:101D7000140605060895092E0394000C11F4882317
:101D800052F0BB0F40F4BF2B11F460FF04C06F5F33
:101D90007F4F8F4F9F4F089557FD9058440F551F09
:101DA00059F05F3F71F04795880F97FB991F61F0DD
:101DB0009F3F79F087950895121613061406551F54
:101DC000F2CF4695F1DF08C0161617061806991FC0
:101DD000F1CF86957105610508940895E894BB27B5
:101DE00066277727CB0197F908950E94800E08F4A3
:101DF0008FEF08950E940D0F0C94BB0E0E94AD0E44
:101E000038F00E94B40E20F0952311F00C94A40E2B
:101E10000C94AA0E11240C94EF0E0E94CC0E70F3B9
:101E2000959FC1F3950F50E0551F629FF001729F7F
:101E3000BB27F00DB11D639FAA27F00DB11DAA1F8E
:101E4000649F6627B00DA11D661F829F2227B00DDB
:101E5000A11D621F739FB00DA11D621F839FA00D66
:101E6000611D221F749F3327A00D611D231F849FB6
:101E7000600D211D822F762F6A2F11249F5750400D
:101E80009AF0F1F088234AF0EE0FFF1FBB1F661F88
:101E9000771F881F91505040A9F79E3F510580F051
:101EA0000C94A40E0C94EF0E5F3FE4F3983ED4F331
:101EB000869577956795B795F795E7959F5FC1F7F5
:101EC000FE2B880F911D9695879597F90895A29FEF
:101ED000B001B39FC001A39F700D811D1124911DFE
:101EE000B29F700D811D1124911D08952F923F9274
:101EF0004F925F926F927F928F929F92AF92BF921A
:101F0000CF92DF92EF92FF920F931F93CF93DF93C5
:101F1000CDB7DEB7CA1BDB0B0FB6F894DEBF0FBE22
:101F2000CDBF09942A88398848885F846E847D846F
:101F30008C849B84AA84B984C884DF80EE80FD8071
:101F40000C811B81AA81B981CE0FD11D0FB6F894E7
:101F5000DEBF0FBECDBFED010895CF92DF92FF929D
:101F60000F931F93CF93DF93EA01F02E122F2830A7
:101F700008F017E000E0212FAE010E947B1098814D
:101F8000292F2870DE0190FF06C0211104C0119690
:101F90002DE228830CC0F1FE03C011963BE204C081
:101FA000F0FE03C0119630E23883211105C092FF84
:101FB0000DC068E670E002C060E770E0F2FE02C0AB
:101FC0006C5F7F4FCD010E94531143C0FD013196DC
:101FD00029812C93213309F09F7E1123B9F0AE01A2
:101FE0004E5F5F4F6F01312F2EE2DA016D91AD012F
:101FF000D6012D936D013150262FB9F71150DF0115
:10200000A10FB11DFD01329611966C93F2FC02C036
:1020100025E601C025E42083DF01129687FF04C076
:102020009DE29183819508C0811104C094FF02C094
:102030009DE201C09BE2918390E38A301CF09F5F98
:102040008A50FBCF9C93805D11968C9311971296CA
:102050001C92CE01DF91CF911F910F91FF90DF90E5
:10206000CF900895662777270C94EE11FC018827FE
:102070009927E89421912032E9F3293010F02E308D
:10208000C8F32B3241F02D3239F4689404C00E9419
:10209000AA11820F911D219120532A30C0F31EF402
:1020A000909581959F4F08951F93FC01992788274C
:1020B000BC01E89411911032E9F3193010F01E3090
:1020C000C8F31B3251F01D3249F4689406C00E94D7
:1020D0009511610F711D811D911D119110531A30C1
:1020E000B0F33EF490958095709561957F4F8F4F3A
:1020F0009F4F1F910895283008F027E03327DA0119
:10210000990F311D87FD916000966105710539F4C5
:1021100032602E5F3D9330E32A95E1F708959F3FAB
:1021200030F080387105610509F03C5F3C5F3D93FC
:10213000913008F08068911DDF93CF931F930F9328
:10214000FF92EF92192F987F9695E92F9695969585
:10215000E90FFF27EE52FF4F99273327EE24FF2484
:10216000A701E70105900894079428F4360FE71EAD
:10217000F81E491F511D660F771F881F991F06946F
:10218000A1F70590079428F4E70EF81E491F561F83
:10219000C11D770F881F991F661F0694A1F7059030
:1021A000079428F4F80E491F561FC71FD11D880F2A
:1021B000991F661F771F0694A1F70590079420F4D6
:1021C000490F561FC71FD81F990F661F771F881FFB
:1021D0000694A9F784911095177041F0D695C7958C
:1021E00057954795F794E7941A95C1F7E8E7F0E01B
:1021F00068941590159135916591959105907FE2C0
:102200007395E118F10A430B560BC90BD009C0F7BF
:10221000E10CF11E431F561FC91FD01D7EF4703301
:1022200011F48A95E6CFE894015030F0080F0AF4D3
:102230000027021708F4202F2395022F7A3328F065
:1022400079E37D932A95E9F710C07D932A9589F665
:10225000069497956795379517951794E118F10AA5
:10226000430B560BC90BD00998F023957E917395BB
:102270007A3308F070E37C932013B8F77E91706195
:102280007D9330F0839571E37D9370E32A95E1F7B8
:102290001124EF90FF900F911F91CF91DF9199271B
:1022A00087FD90950895FB01DC0105900D920020BB
:1022B000E1F70895FB01DC0101900D920020E1F7A8
:1022C0000895FB0151915523A9F0BF01DC014D9107
:1022D00045174111E1F759F4CD010190002049F073
:1022E0004D9140154111C9F3FB014111EFCF81E040
:1022F00090E001970895BB274A3031F4992322F4E6
:10230000BDE2909581959F4F0C94D511BB272A3043
:1023100051F4992342F4BDE29095809570956195B2
:102320007F4F8F4F9F4F0C94B311592F482F372F4A
:10233000262F660F771F881F991F660F771F881F2C
:10234000991F620F731F841F951F660F771F881FC9
:10235000991F08957AE0979F902D879F802D910D6A
:1023600011240895BB27FA01A62F62177105810574
:102370009105330B30FB66F0AA27660F771F881F85
:10238000991FAA1FA21710F0A21B63953850A9F736
:10239000A05DAA3308F0A95DA19336F7B111B193FE
:1023A0001082CA010C946C13BB27FB015527AA2786
:1023B000880F991FAA1FA41710F0A41B83955051D2
:1023C000B9F7A05DAA3308F0A95DA193009779F74A
:1023D000B111B1931192CB010C946C13A0E0B0E059
:1023E000E4EFF1E10C947A0FEC017B0161157105CA
:1023F00019F0DB018D939C938E010F5F1F4F788046
:10240000872D90E00E944B13892B11F0E801F4CF47
:10241000BDE27B1205C00F5F1F4F7980C1E008C08D
:10242000EBE27E1204C08E010E5F1F4F7980C0E088
:102430006801F1E0CF1AD10843E050E06AE771E0AB
:10244000C6010E945413892BF1F4680122E0C20EE8
:10245000D11C45E050E065E771E0C6010E945413CD
:10246000892B21F4680187E0C80ED11CE114F10426
:1024700019F0D701CD92DC92C111FFC060E070E08D
:1024800080E89FE703C143E050E062E771E0C601E6
:102490000E945413892B51F4E114F10409F4F2C0A1
:1024A0000E5F1F4FF70111830083ECC0680160E0ED
:1024B00070E0CB0100E010E0F601D0EDD70DDA308E
:1024C00058F52C2F2260622E2C2F2870C2FF05C0D9
:1024D000211128C00F5F1F4F25C0222311F001508A
:1024E0001109A5E0B0E09B01AC010E94CB134B01A8
:1024F0005C01880C991CAA1CBB1CC501B4016D0FA2
:10250000711D811D911D6839A9E97A078A07A9E122
:102510009A0740F0C66005C0DE3F51F4C3FD44C0D9
:10252000C8606C2EBFEFCB1ADB0A7080C62DC4CFFB
:102530002D2F2F7D2531C1F540814D3211F4C06121
:1025400006C04B3221F0319621E030E006C03296D1
:10255000D60111964C9122E030E0A0EDA40FAA30F4
:1025600018F0E21BF30B20C040E050E04038BCE024
:102570005B075CF49A01220F331F220F331F420FB7
:10258000531F440F551F4A0F511D3196DF011197FC
:102590002C91A0EDA20FAA3048F3C4FF03C05195BF
:1025A00041955109040F151FC1FF07C0E114F10443
:1025B00021F03197D701ED93FC930E94430EC37035
:1025C000C33019F06B017C0106C06B017C01F7FA86
:1025D000F094F7F8F09420E030E0A901C701B601CB
:1025E0000E949D0D882309F445C017FF06C0119570
:1025F00001951109C1E9D1E002C0C9EAD1E05E014B
:10260000B8E1AB1AB1084601BE2DAF2D90E2E92E1C
:10261000F12C0E151F0584F0FE0125913591459191
:102620005491B4018B2F9A2F0E94FA0E4B01B82FB0
:10263000A92F0E191F09EDCF2497F594E794CA1519
:10264000DB0539F76401EB2EFA2E8E2D880F8F2DC6
:10265000881F8F3F49F020E030E0A901C701B60193
:102660000E949D0D811106C082E290E09093940437
:1026700080939304C701B60109C060E070E080E870
:102680009FEF04C060E070E080EC9FE7CDB7DEB75D
:10269000EEE00C94960F91110C947C13803219F09B
:1026A00089508550C8F70895FB01DC014150504026
:1026B00088F08D9181341CF08B350CF4805E65912F
:1026C00061341CF06B350CF4605E861B611171F394
:1026D000990B0895881BFCCFDC01FC01672F7191D9
:1026E0007723E1F7329704C07C916D9370836291F8
:1026F000AE17BF07C8F30895992788270895DC010E
:10270000CB01FC01F999FECF06C0F2BDE1BDF89AFC
:10271000319600B40D9241505040B8F70895F999A0
:10272000FECF92BD81BDF89A992780B50895DC014E
:10273000A40FB51F4150504048F0CB01840F951FA6
:102740002E910E94A81341505040D0F70895262F93
:10275000F999FECF92BD81BDF89A019700B4021697
:1027600039F01FBA20BD0FB6F894FA9AF99A0FBE45
:1027700008950396272F0E94A8130E94A713252FC0
:102780000E94A813242F0C94A8130196272F0E94AF
:10279000A8130C94A7130E94670FA59F900DB49FD8
:1027A000900DA49F800D911D11240895F894FFCFE2
:1027B000FA02FC02F702CE06C406BF06B6065C0C9F
:1027C00008070B07F206DC06150214200D19020E8D
:1027D0000B0A1D0217660B210215020D250211F1CD
:1027E00008290219A50B2D02021109310207070958
:1027F0003502031B093902052409D9010633093DB5
:102800000208EB08400209ED0846020442094A02A8
:1028100001EF084E020B490952020CBC0956020D89
:1028200077095A021BC10B5E021CDD0B62021DF907
:102830000B66021E150C6A020F1E0A6E0210650A54
:10284000720212FC08760213AC097A02169C097E09
:102850000218760B82021F4D0C860221310C1102E8
:1028600022F00A8C038B037D03F602574B50005075
:10287000415200002F170B07030D0A00415423009B
:102880004253543400454E44004453430057656955
:102890006768745363616C657334004D4243303430
:1028A0002E33362E3200310053435200313233344E
:1028B00000504E5500534E44004E414D004241558C
:1028C000004D54500044434F004742540044544D7F
:1028D0000053434F0056525300444154005251504C
:1028E000005343510050524400434F4E004F4B00A1
:1028F0004552524F520052505400504F4E004641E4
:102900004400544F46004342540053474400554747
:1029100044005047440050484E00534E410042533B
:102920005400485257004443480047434F00435423
:0A2930004D00504F46005352430083
:00000001FF
