:100000000C94D7000C9495060C94F4000C94F40016
:100010000C945B080C94F4000C9450080C94F400BD
:100020000C94F4000C94F4000C94F4000C94F40080
:100030000C94F4000C94CA070C94F4000C94F40093
:100040000C94F3070C94F4000C94A0070C94F400A7
:100050000C94F4000C94F4000C94F4000C94F40050
:100060000C94F4000C94F400696E6600494E46004E
:100070006E616E004E414E0000407A10F35A00A0AF
:10008000724E18090010A5D4E80000E87648170061
:1000900000E40B54020000CA9A3B000000E1F505A1
:1000A000000080969800000040420F000000A086EB
:1000B00001000000102700000000E803000000001D
:1000C0006400000000000A000000000001000000C1
:1000D00000002C76D888DC674F0823DFC1DFAE59DB
:1000E000E1B1B796E5E3E453C63AE651997696E86E
:1000F000E6C28426EB898C9B62ED407C6FFCEFBCF2
:100100009C9F40F2BAA56FA5F490055A2AF75C931C
:100110006B6CF9676DC11BFCE0E40D47FEF520E652
:10012000B500D0ED902E0300943577050080841E35
:10013000080000204E0A000000C80C333333330F90
:10014000986E12831141EF8D2114893BE65516CF2D
:10015000FEE6DB18D1844B381BF77C1D901DA4BB39
:10016000E424203284725E228100C9F124ECA1E5EE
:100170003D274E414E494E495459494E46CDCCCC6F
:100180003D0AD7233C17B7D13877CC2B329595E66B
:10019000241FB14F0A000020410000C84200401C4B
:1001A0004620BCBE4CCA1B0E5AAEC59D740011241D
:1001B0001FBECFEFD4E0DEBFCDBF13E0A0E0B1E0C3
:1001C000E0E4F6E202C005900D92A03FB107D9F736
:1001D00024E0A0EFB3E001C01D92AD36B207E1F715
:1001E0000E943A080C941E130C9400002A98E09187
:1001F0000401F09105018FEF0995E0910401F09160
:1002000005018FEF0995E0910401F09105018FEF51
:100210000995E0910401F09105018FEF099589E9B5
:1002200093E00197F1F700C00895CF93DF93809199
:10023000F4038B7599F0E0910001F09101010995AB
:1002400090E0A0E0B0E0DC01992788278093F903D3
:100250009093FA03A093FB03B093FC03E091000199
:10026000F09101010995C2EFD3E04F81588569856E
:100270007A85582B4F83588769877A87E0910001E8
:10028000F091010109954F81588569857A85482B40
:100290004F83588769877A87DF91CF910895E1EC82
:1002A000F0E0808180688083EFE6F0E0808181600B
:1002B0008083EEE6F0E08081816080830895CF93B3
:1002C000DF93C2EFD3E088818778886088830E94BB
:1002D0004F012A98E0910401F09105018881099568
:1002E000E0910201F09103018B819C8109950E94AC
:1002F0004F01DF91CF910895E1ECF0E080818F779D
:100300008083EEE6F0E080818E7F8083EFE6F0E090
:1003100080818E7F80830895CF93DF93C2EFD3E0F7
:1003200088818778806688830E947C012A98E09182
:100330000401F0910501888109951C99FECFE09197
:100340000001F09101010995C2EFD3E08A830E9478
:100350004F018A81DF91CF910895CF92DF92EF9282
:10036000FF92CF930E947C01E0910401F09105017E
:100370008091F20309951C99FECF8091F4038B754F
:1003800069F0E0910001F09101010995C82ED12C8E
:10039000E12CF12C7601DD24CC2403C0C12CD12C1E
:1003A0007601E0910001F09101010995C82FE091DB
:1003B0000001F09101010995C82ADC2A0E944F0131
:1003C000C701B601CF91FF90EF90DF90CF900895D5
:1003D000CF93DF93C2EFD3E08881877888648883E6
:1003E0000E947C012A98E0910401F0910501888126
:1003F00009951C99FECFE0910001F091010109954A
:10040000C2EFD3E01B828C83E0910001F0910101E7
:1004100009952B813C81282B3C832B830E944F0123
:100420008B819C81DF91CF910895CF93DF93C2EFB1
:10043000D3E088818778806588830E947C012A9830
:10044000E0910401F0910501888109951C99FECF86
:10045000E0910001F09101010995C2EFD3E01D8206
:100460008E83E0910001F091010109952D813E817B
:10047000282B3E832D830E944F018D819E81DF9129
:10048000CF910895CF93DF93C2EFD3E0888187782F
:10049000806188830E947C012A98E0910401F09198
:1004A000050188810995E0910201F09103018D8198
:1004B0009E8109950E944F01DF91CF910895CF93BE
:1004C000DF93C82FE7EFF3E067708081887F682BA8
:1004D00060830E944202E5EFF3E09C2F9295990F12
:1004E000907E81818F71892B81830E945F011C998D
:1004F000FECFE2EFF3E08081806480832A98CD7F95
:10050000C43061F4EF018081877C806380830E9426
:10051000AD016B877C878D879E870BC0C2EFD3E0D0
:100520008881886388830E94AD016F87788B898B6F
:100530009A8BDF91CF910895E0910601F091070128
:1005400009952A9A0E94F6000E94E8010E9415026D
:100550000E948C01E7EFF3E0818180618F7D8183D0
:10056000E5EFF3E080818F608083E0911A01F091E4
:100570001B018081803110F08FE08083A0911A01EF
:10058000B0911B01E5EFF3E08C91982F9F70808173
:10059000807F892B80830E945F010E94420260E07D
:1005A00084E00E945F0266E084E00E945F0208959A
:1005B0001F93CF93DF93182FEB010E947C01E7EF8D
:1005C000F3E017708081887F182B10832A98E5EF5D
:1005D000F3E081818F71806281830E9442020E94D8
:1005E0005F011C9B04C088818111FBCF03C08881FF
:1005F000811117C0C2EFD3E088818778886588832E
:10060000E0910401F091050109950E9415010E94F5
:100610004F011F82188619861A8660E070E0CB01B0
:1006200013C0C2EFD3E08881877888658883E09122
:100630000401F091050109950E9415010E944F01E6
:100640006F81788589859A85DF91CF911F91089573
:10065000EF92FF920F931F93CF93DF93E2EFF3E0BC
:10066000E580F680038114810E947C01E7EFF3E0CE
:100670008081887F866080832A9881818F7E8183B4
:10068000E5EFF3E081818F71806281830E944202F5
:100690000E945F011C99FECFC2EFD3E0888187786A
:1006A00088658883E0910401F091050109950E9415
:1006B00015010E944F01FE82ED821C830B836F8126
:1006C000788589859A85DF91CF911F910F91FF9051
:1006D000EF900895AAE7B0E08C9180688C93ECE7E6
:1006E000F0E080818F7D808380818F77808380811F
:1006F000806480838081807F808380818760808325
:100700008C91887F8C938C9187608C930895CF9384
:10071000DF9300D0CDB7DEB78091780089838091D8
:1007200079008A8389819A810F900F90DF91CF9110
:100730000895EF92FF920F931F93CF93DF93CDB75E
:10074000DEB728970FB6F894DEBF0FBECDBFFE010F
:10075000319688E0DF011D928A95E9F70AE710E0FB
:100760007E01B9E0EB0EF11C8D819E8198878F830D
:100770008B819C819E838D8389819A819C838B83CD
:100780007894F801808180648083D8018C9184FF03
:10079000FCCF0E9487039A838983FE013196AC01C6
:1007A00021913191821793070CF4C9012417350761
:1007B0000CF4A901EE15FF0599F74A5F5F4F481742
:1007C000590794F228960FB6F894DEBF0FBECDBF3E
:1007D000DF91CF911F910F91FF90EF900895EF92CD
:1007E000FF921F93CF93DF93A895ECE7F0E0908101
:1007F000907F90839081892B80830E94990318E0D9
:10080000E12CF12CCAE7D0E0A895988190649883F8
:10081000988194FFFDCF0E948703E80EF91E1150C6
:1008200099F7C7019695879596958795969587959B
:10083000DF91CF911F91FF90EF900895E0911C01FF
:10084000F0911D01808191818130944010F01182DE
:1008500010820895CF92DF92EF92FF92CF93DF93B1
:10086000E0911C01F0911D0191838083C0911C01D6
:10087000D0911D016881798180E090E00E94860D11
:100880006B017C019B01AC016DEC7CEC84E890E495
:100890000E94E50C9B01AC016AE979E989E490E4E6
:1008A0000E94E50C0E94570D7B836A8380E090E0F4
:1008B0000E94860D9B01AC01C701B6010E94780C15
:1008C00020E030E048EC52E40E94E50C6C837D832C
:1008D0008E839F83DF91CF91FF90EF90DF90CF9039
:1008E0000895CF93DF93C0911C01D0911D012A81FF
:1008F0003B81821B930BBC0180E090E00E94860D3F
:100900002C813D814E815F810E94E50C0E94570D34
:10091000862FDF91CF910895CF92DF92EF92FF92D1
:10092000E0911C01F0911D0171836083853608F010
:1009300084E6682F70E080E090E00E94880D2AE055
:1009400037ED43E25CE30E94190E2AE939E949E4F4
:1009500050E40E94790C6B017C01E0911C01F09144
:100960001D0180819181BC0180E090E00E94860D94
:100970009B01AC01C701B6010E94E50C9B01AC01D3
:100980006DEC7CEC84E890E40E94E50C20E030E023
:1009900040E854E40E94140E181624F480E094E019
:1009A0000E942A04FF90EF90DF90CF900895CF939C
:1009B000DF93EC010E941E04E0911C01F0911D01E7
:1009C000808191818C179D0718F4CE010E942A0422
:1009D000CE010E947104853620F0BE0184E60E949B
:1009E0008C04DF91CF910895459A08954598089514
:1009F0003D9A0E94F604089598B180E2892788B94B
:100A00000895CF93C82F6115710541F1E09116014A
:100A1000F0911701808181110AC0A4E1B1E016C0F4
:100A20001296ED91FC9113979081992379F0E091C2
:100A30000801F09109010995E0911801F09119015F
:100A400081E090819C1759F080E009C0E3E3F7E072
:100A50003197F1F76150710919F701C080E0CF912A
:100A60000895E0911601F091170110821092F103A0
:100A7000E0911001F09111018DE393E00995E0916F
:100A80001001F09111018CEF92E0099560ED77E093
:100A900081E00E94010508950F931F93CF93DF9388
:100AA0008C01EB01E0911601F09117011082109278
:100AB000F103E0911001F09111018FEF92E009959F
:100AC000E0911001F0911101C8010995E0910E012A
:100AD000F0910F018BEA92E00995E0910E01F091FF
:100AE0000F01CE010995E0911001F09111018CEFF9
:100AF00092E0099560ED77E081E00E940105DF91C9
:100B0000CF911F910F910895CF93DF93CDB7DEB7AB
:100B1000C756D1090FB6F894DEBF0FBECDBF4AE06D
:100B2000BE016D5F7F4F90E00E948710BC018DEA8F
:100B300092E00E944C05C959DF4F0FB6F894DEBF12
:100B40000FBECDBFDF91CF910895CF93DF937894FF
:100B5000E0911401F09115018081873010F081E05F
:100B60008083E0911401F0911501808190E0DC0117
:100B7000AA0FBB1F8A0F9B1FDC01A951BD4FE0913B
:100B80000A01F0910B018C910995E0910C01F09113
:100B90000D010995A8950E943105811155C0E4E128
:100BA000F1E0A081B1811C920190F081E02D908153
:100BB000973008F04CC0C4E1D1E0892F90E0DC010F
:100BC000AA0FBB1F8A0F9B1FDC01A951BD4FE091EB
:100BD0000A01F0910B018C910995A8955D982FEF72
:100BE0008FE191E0215080409040E1F700C000008B
:100BF000569A5E988FEF9FE80197F1F700C00000CA
:100C000056989FEF2FE786E1915020408040E1F712
:100C100000C000005D9A9FEF2FE181E091502040DD
:100C20008040E1F700C000000E94310581110EC034
:100C3000E881F98190819F5F9083E881F9819081BB
:100C4000973008F4BACF03C081E001C081E0DF91A2
:100C5000CF910895CF93DF93EC01E0911601F091CD
:100C6000170110821092F103E0911001F09111012F
:100C70008FEF92E00995E0911001F091110183EB63
:100C800092E00995E0910E01F0910F018BEA92E05C
:100C90000995E0910E01F0910F01CE010995E091C7
:100CA0000E01F0910F0188EB92E00995E09110019F
:100CB000F09111018CEF92E0099560ED77E081E011
:100CC0000E940105DF91CF910895569A5E988FEFAB
:100CD0009FE80197F1F700C0000056989FEF2FE7BB
:100CE00086E1915020408040E1F700C00000559A15
:100CF0005D9A9FEF2FE181E0915020408040E1F725
:100D000000C000000E94A505811101C0FFCF81E055
:100D10000E9484055D989FEF2FE181E09150204073
:100D20008040E1F700C0000008951F920F920FB6B7
:100D30000F9211242F933F934F935F936F937F9361
:100D40008F939F93AF93BF93EF93FF93E091120123
:100D5000F09113010995FF91EF91BF91AF919F9190
:100D60008F917F916F915F914F913F912F910F9054
:100D70000FBE0F901F90189584B18C6284B98CE5DA
:100D80008CBD8DB581608DBD08958EBD0DB407FEFF
:100D9000FDCF0895CF93C82F892F0E94C5068C2FB1
:100DA0000E94C506CF9108951EBC0DB407FEFDCF6D
:100DB0008EB50895E0ECF0E0908195FFFDCF809333
:100DC000C60008950F931F93CF93FC018081882361
:100DD00059F08F01C0E00E94DA06CF5FF801EC0FF6
:100DE000F11D80818111F7CFCF911F910F9108954F
:100DF0000F931F93CF93FC018081882359F08F01BB
:100E0000C0E00E94DA06CF5FF801EC0FF11D80818F
:100E10008111F7CFCF911F910F9108958093C40056
:100E20000895E1ECF0E0808188698083E2ECF0E0F5
:100E300080818660808308954A9904C081E0809310
:100E4000AA0208951092AA02089580B7806880BF10
:100E5000EFE7F0E080818360808340E251E06FE063
:100E600070E081E291E00E9490120E9465060E946B
:100E70006A03EEE7F0E08081876380838091200140
:100E8000813009F4299A21E32A95F1F700000E94A4
:100E90009C022998A998EEE6F0E080818160808329
:100EA000B198EFE6F0E0808181608083ECE6F0E0CD
:100EB00080818860808380913501909136018855CA
:100EC0009240893B9B4038F088E592E09093360150
:100ED0008093350104C010921F0110921E0187E01B
:100EE0000E94EF030E94D70440E251E06FE070E0FF
:100EF00081E291E00E94A81260E08EE191E00E9400
:100F0000060C83E08093050486E980930604E8E6F6
:100F1000F0E080818260808316BC85B5856085BDE8
:100F20008FED93EE9093850080938400E1E8F0E0EC
:100F3000808185608083E89A0E944E0BA895FCCF43
:100F40001F920F920FB60F9211242F933F934F933E
:100F50005F936F937F938F939F93AF93BF93EF9321
:100F6000FF938091C6009091A702911102C00E9448
:100F7000C00BFF91EF91BF91AF919F918F917F91A6
:100F80006F915F914F913F912F910F900FBE0F90F6
:100F90001F9018951F920F920FB60F9211242F9346
:100FA0003F938F939F93EF93FF93EEE1F1E0808166
:100FB00091810196918380832789308D2817390785
:100FC00008F441988FED93EE909385008093840010
:100FD000FF91EF919F918F913F912F910F900FBEB5
:100FE0000F901F9018951F920F920FB60F92112419
:100FF0002F933F934F935F936F937F938F939F9321
:10100000AF93BF93EF93FF938091F0038F5F809333
:10101000F00390910504891718F40E94F40402C0AB
:101020000E94F6049091F00380910604891710F451
:101030001092F003FF91EF91BF91AF919F918F912B
:101040007F916F915F914F913F912F910F900FBEC4
:101050000F901F901895F894A89588E180936000F0
:1010600099E20FB6F894A895809360000FBE909314
:1010700060000895399A419A81E080932001789424
:10108000219A52985A98E9E6F0E080818160808345
:101090000E942B080E94F8040E94F4040E94250775
:1010A0001F920F920FB60F92112441980F900FBE0E
:1010B0000F901F9018951F920F920FB60F92112448
:1010C0002F933F934F935F936F937F938F939F9350
:1010D000AF93BF93CF93DF93EF93FF93339B43C0C3
:1010E00010921F0110921E010E94F404C8E2D0E089
:1010F0002FEF8FE392E0215080409040E1F700C055
:101100000000339903C00E94F6042DC0A8952197D2
:1011100039F55E9A2FEF8FE392E0215080409040A6
:10112000E1F700C000000E94F6043399FECF2FEFD4
:101130008FE39BE0215080409040E1F700C0000029
:10114000299A21E32A95F1F7000041988FEF9FE754
:1011500026E1815090402040E1F700C0000003C02C
:101160000E94FC04C5CFFF91EF91DF91CF91BF9119
:10117000AF919F918F917F916F915F914F913F912F
:101180002F910F900FBE0F901F90189580E008953B
:1011900080E00895FC01ED5DFE4F0190F081E02DAF
:1011A000808191810E94E2068CEF92E00E94E2062B
:1011B0002FEF8FE796E1215080409040E1F700C08B
:1011C0000000419880E00895DC01AB5DBE4F9EE0D9
:1011D000E3E0F3E001900D929A95E1F781E0089544
:1011E000DC01AB5DBE4F9AE0E1E1F3E001900D92CE
:1011F0009A95E1F781E00895EF92FF920F931F9384
:10120000CF93DF93EC01FC01EB5DFE4F80818111F8
:101210000CC089E290E00E94A012BE016B5D7E4F7F
:101220004AE090E00E9487101BC08E0106571E4FB7
:10123000D801ED90FC90CB5DDE4FCE010E94600F97
:101240006F70F7018381807F682B6383D801ED91F4
:10125000FC9163816F7089E290E00E94B81218825D
:1012600081E0DF91CF911F910F91FF90EF90089552
:10127000EF92FF920F931F93CF93DF93FC01EB5DEF
:10128000FE4F20812223D1F0EC0187E00E94EF0382
:101290007C018E010B5D1E4FC8010E94420FB701F9
:1012A0000E948C0448E050E06BE170E0CE010F96A4
:1012B0000E94A812F801108281E001C080E0DF9155
:1012C000CF911F910F91FF90EF900895AC014B5D6E
:1012D0005E4FFC01618D728D838D948D2AE00E949A
:1012E000921081E008950F931F93CF93DF93EC0149
:1012F000FC01EB5DFE4F8081811116C0AF012F898B
:10130000388DA9E8B8E80E94AA0E9695879592951F
:1013100082958F7089279F708927BC0180E090E0BB
:101320002AE00E94921015C08E010B5D1E4FC8016D
:101330000E94600F2CE3269FA001279F500D1124CF
:10134000588F4F8BBA0183E290E00E94D612F801C9
:10135000108281E0DF91CF911F910F910895CF937B
:10136000DF93EC0187E00E94EF030E947104BE014D
:101370006B5D7E4F4AE090E00E94871081E0DF9134
:10138000CF910895CF93DF935D9A2FEF3FE141E036
:10139000215030404040E1F700C00000EC01CB5D3F
:1013A000DE4FBE018BE193E00E944C055D989FEFFC
:1013B0002FE131E0915020403040E1F700C00000C3
:1013C0001882882341F080E293E00E94E2068CEFCD
:1013D00092E00E94E20680E0DF91CF9108950F93A2
:1013E0001F93CF93DF93EC01FC01EB5DFE4F8081F7
:1013F0008823E9F1CF010E94420F8C01873008F069
:1014000043C05D9A2FEF3FE181E0215030408040A2
:10141000E1F700C0000098013327F901EE0FFF1F2C
:101420002E0F3F1FF901E951FD4F818192810E94EA
:101430002A06882359F1602F8AE290E00E94B812B0
:101440005D989FEF2FE131E0915020403040E1F76F
:1014500000C00000CB5DDE4F188284E293E00E9462
:10146000E2068CEF92E00E94E20680E01CC08AE275
:1014700090E00E94A012BE016B5D7E4F4AE090E0BA
:101480000E94871081E00FC080E00DC05D989FEF43
:101490002FE131E0915020403040E1F700C00000E2
:1014A000CB5DDE4F1882DF91CF911F910F91089590
:1014B000CF93DF93EC010E942803AE014B5D5E4F9A
:1014C0002AE00E94921081E0DF91CF9108950F935E
:1014D0001F93CF93DF93EC01FC01EB5DFE4F808106
:1014E00081110AC0AF016B817C818D819E8100E0FA
:1014F00025E00E94B90E12C08E010B5D1E4FC8017F
:101500000E943E0FAB01BC014B835C836D837E83E5
:101510008FE090E00E94CA12F801108281E0DF9112
:10152000CF911F910F910895CF93DF93FC01EB5D55
:10153000FE4F2081211108C044E650E06BE270E0CC
:10154000CF010E9490120BC0EC01CB5DDE4F44E650
:1015500050E06BE270E0CE010E94A812188281E098
:10156000DF91CF910895CF93DF93FC01EB5DFE4FA8
:101570002081211108C040E250E06FEA70E0CF0105
:101580000E9490120BC0EC01CB5DDE4F40E250E0B8
:101590006FEA70E0CE010E94A812188281E0DF910C
:1015A000CF910895CF93DF93FC01EB5DFE4F208137
:1015B000211108C040E250E06FEC70E0CF010E94C2
:1015C00090120BC0EC01CB5DDE4F40E250E06FECBF
:1015D00070E0CE010E94A812188281E0DF91CF91C5
:1015E0000895CF93DF93FC01EB5DFE4F2081211125
:1015F00008C040E250E06FEE70E0CF010E94901210
:101600000BC0EC01CB5DDE4F40E250E06FEE70E0CE
:10161000CE010E94A812188281E0DF91CF91089537
:10162000CF93DF93FC01EB5DFE4F2081211108C0B9
:1016300040E250E06FE071E0CF010E9490120BC0D9
:10164000EC01CB5DDE4F40E250E06FE071E0CE0197
:101650000E94A812188281E0DF91CF910895CF9364
:10166000DF93FC01EB5DFE4F2081211108C040E2B9
:1016700050E06FE870E0CF010E9490120BC0EC01C7
:10168000CB5DDE4F40E250E06FE870E0CE010E949B
:10169000A812188281E0DF91CF9108958091A7026E
:1016A000882311F1E0914102F09142020380F4811C
:1016B000E02D8EE191E00995882381F0E0914102CF
:1016C000F0914202808191810E94E20683E492E0DF
:1016D0000E94E2068CEF92E00E94E2061092A702BE
:1016E00010921F0110921E010895CF92DF92EF9287
:1016F000FF920F931F93CF93DF936C010DE713E0DD
:10170000C0E0D0E0F8016081718187E094E00E9440
:101710006D10892B11F1F601ED5DFE4FCE01880FA2
:10172000991F880F991F8C0F9D1F9C0123583C4FB8
:101730003183208381589C4F909319018093180125
:101740006AE074E0C6018B5D9E4F0E946610F60150
:10175000E757FE4F81E080830AC021960B5F1F4F41
:10176000C731D10579F6F601E757FE4F1082DF91B8
:10177000CF911F910F91FF90EF90DF90CF90089540
:101780008A3049F08D3071F4E091F103F0E0E95FC7
:10179000FB4F108208958EE191E00E94750B10922C
:1017A000F10308959091F103943610F01092F10333
:1017B000E091F10391E09E0F9093F103F0E0E95F77
:1017C000FB4F8083089561157105D9F09091AA02AD
:1017D000911106C0EAEAF2E008C09081992329F04D
:1017E0006AEA72E00E94D8020895A3E3B7E0119775
:1017F000F1F76150710989F76FEF7FEF8FEF90E09C
:1018000008956FEF7FEF8FEF90E00895CF93DF9310
:10181000EC01862F9A81913009F4299A91E39A95E7
:10182000F1F7000068EE73E00E94E30B698F7A8F96
:101830008B8F9C8F2998DF91CF910895CF93DF9361
:10184000EC0160E00E94060CCB5DDE4F188281E067
:10185000DF91CF9108950F931F93CF93DF93EC0106
:10186000862F9A81913009F4299A91E39A95F1F79C
:10187000000068EE73E00E94E30B098D1A8D2B8D3A
:101880003C8D601B710B820B930B2998DF91CF91DC
:101890001F910F910895CF93DF93EC0160E08EE1EB
:1018A00091E00E942B0CAE014B5D5E4F2AE00E943E
:1018B000921081E0DF91CF910895CF93DF93EC01F7
:1018C0008A81813009F4299A81E38A95F1F7000031
:1018D00068EE73E080E00E94E30BAE014B5D5E4F6B
:1018E0002AE00E949210299881E0DF91CF9108951B
:1018F0005058BB27AA270E94900C0C94DA0D0E9426
:10190000CC0D38F00E94D30D20F039F49F3F19F42C
:1019100026F40C94C90D0EF4E095E7FB0C94C30D6E
:10192000E92F0E94EB0D58F3BA176207730784077B
:10193000950720F079F4A6F50C940D0E0EF4E095C1
:101940000B2EBA2FA02D0B01B90190010C01CA0179
:10195000A0011124FF27591B99F0593F50F4503E24
:1019600068F11A16F040A22F232F342F4427585F16
:10197000F3CF469537952795A795F0405395C9F72E
:101980007EF41F16BA0B620B730B840BBAF09150E6
:10199000A1F0FF0FBB1F661F771F881FC2F70EC085
:1019A000BA0F621F731F841F48F487957795679558
:1019B000B795F7959E3F08F0B0CF9395880F08F044
:1019C0009927EE0F9795879508950E94F90C0C942E
:1019D000DA0D0E94D30D58F00E94CC0D40F029F48E
:1019E0005F3F29F00C94C30D51110C940E0E0C9412
:1019F000C90D0E94EB0D68F39923B1F3552391F3C0
:101A0000951B550BBB27AA2762177307840738F06D
:101A10009F5F5F4F220F331F441FAA1FA9F335D0CA
:101A20000E2E3AF0E0E832D091505040E695001C7E
:101A3000CAF72BD0FE2F29D0660F771F881FBB1F38
:101A4000261737074807AB07B0E809F0BB0B802D16
:101A5000BF01FF2793585F4F3AF09E3F510578F042
:101A60000C94C30D0C940E0E5F3FE4F3983ED4F338
:101A7000869577956795B795F7959F5FC9F7880F16
:101A8000911D9695879597F90895E1E0660F771F68
:101A9000881FBB1F621773078407BA0720F0621BF9
:101AA000730B840BBA0BEE1F88F7E09508950E9424
:101AB000F30D88F09F5798F0B92F9927B751B0F0E0
:101AC000E1F0660F771F881F991F1AF0BA95C9F7C2
:101AD00014C0B13091F00E940D0EB1E008950C9445
:101AE0000D0E672F782F8827B85F39F0B93FCCF3F8
:101AF000869577956795B395D9F73EF4909580953F
:101B0000709561957F4F8F4F9F4F0895E89409C05E
:101B100097FB3EF490958095709561957F4F8F4F20
:101B20009F4F9923A9F0F92F96E9BB279395F69536
:101B3000879577956795B795F111F8CFFAF4BB0FB4
:101B400011F460FF1BC06F5F7F4F8F4F9F4F16C018
:101B5000882311F096E911C0772321F09EE8872FA2
:101B6000762F05C0662371F096E8862F70E060E05E
:101B70002AF09A95660F771F881FDAF7880F9695D7
:101B8000879597F9089597F99F6780E870E060E07E
:101B900008959FEF80EC089500240A941616170606
:101BA00018060906089500240A941216130614064E
:101BB00005060895092E0394000C11F4882352F0B1
:101BC000BB0F40F4BF2B11F460FF04C06F5F7F4F69
:101BD0008F4F9F4F089557FD9058440F551F59F050
:101BE0005F3F71F04795880F97FB991F61F09F3F0A
:101BF00079F087950895121613061406551FF2CF33
:101C00004695F1DF08C0161617061806991FF1CF82
:101C100086957105610508940895E894BB276627A9
:101C20007727CB0197F908950E94860E08F48FEF6D
:101C300008950E942C0E0C94DA0D0E94CC0D38F001
:101C40000E94D30D20F0952311F00C94C30D0C9439
:101C5000C90D11240C940E0E0E94EB0D70F3959F8C
:101C6000C1F3950F50E0551F629FF001729FBB2793
:101C7000F00DB11D639FAA27F00DB11DAA1F649F2F
:101C80006627B00DA11D661F829F2227B00DA11DE2
:101C9000621F739FB00DA11D621F839FA00D611D68
:101CA000221F749F3327A00D611D231F849F600D89
:101CB000211D822F762F6A2F11249F5750409AF0B2
:101CC000F1F088234AF0EE0FFF1FBB1F661F771F3E
:101CD000881F91505040A9F79E3F510580F00C9409
:101CE000C30D0C940E0E5F3FE4F3983ED4F386953B
:101CF00077956795B795F795E7959F5FC1F7FE2BA9
:101D0000880F911D9695879597F90895990F00086A
:101D1000550FAA0BE0E8FEEF16161706E807F907BD
:101D2000C0F012161306E407F50798F0621B730B58
:101D3000840B950B39F40A2661F0232B242B252BD9
:101D400021F408950A2609F4A140A6958FEF811D7C
:101D5000811D0895A29FB001B39FC001A39F700D84
:101D6000811D1124911DB29F700D811D1124911DA3
:101D70000895CF92DF92FF920F931F93CF93DF933B
:101D8000EA01F02E122F283008F017E000E0212F92
:101D9000AE010E94870F9881292F2870DE0190FFE5
:101DA00006C0211104C011962DE228830CC0F1FE5B
:101DB00003C011963BE204C0F0FE03C0119630E26E
:101DC0003883211105C092FF0DC068E670E002C0A3
:101DD00060E770E0F2FE02C06C5F7F4FCD010E94B1
:101DE0005F1043C0FD01319629812C93213309F006
:101DF0009F7E1123B9F0AE014E5F5F4F6F01312F0F
:101E00002EE2DA016D91AD01D6012D936D013150B5
:101E1000262FB9F71150DF01A10FB11DFD01329638
:101E200011966C93F2FC02C025E601C025E42083E4
:101E3000DF01129687FF04C09DE29183819508C05F
:101E4000811104C094FF02C09DE201C09BE2918316
:101E500090E38A301CF09F5F8A50FBCF9C93805D9B
:101E600011968C93119712961C92CE01DF91CF910F
:101E70001F910F91FF90DF90CF90089566277727ED
:101E80000C94FA10FC0188279927E89421912032BC
:101E9000E9F3293010F02E30C8F32B3241F02D3207
:101EA00039F4689404C00E94B610820F911D2191EC
:101EB00020532A30C0F31EF4909581959F4F0895CA
:101EC0001F93FC0199278827BC01E89411911032D7
:101ED000E9F3193010F01E30C8F31B3251F01D32F7
:101EE00049F4689406C00E94A110610F711D811D04
:101EF000911D119110531A30B0F33EF490958095D6
:101F0000709561957F4F8F4F9F4F1F910895283097
:101F100008F027E03327DA01990F311D87FD916022
:101F200000966105710539F432602E5F3D9330E310
:101F30002A95E1F708959F3F30F0803871056105DB
:101F400009F03C5F3C5F3D93913008F08068911D43
:101F5000DF93CF931F930F93FF92EF92192F987FE8
:101F60009695E92F96959695E90FFF27EE52FF4F2C
:101F700099273327EE24FF24A701E7010590089451
:101F8000079428F4360FE71EF81E491F511D660FEF
:101F9000771F881F991F0694A1F70590079428F4CE
:101FA000E70EF81E491F561FC11D770F881F991F86
:101FB000661F0694A1F70590079428F4F80E491FB0
:101FC000561FC71FD11D880F991F661F771F0694C4
:101FD000A1F70590079420F4490F561FC71FD81F7B
:101FE000990F661F771F881F0694A9F78491109593
:101FF000177041F0D695C79557954795F794E79494
:102000001A95C1F7E8E7F0E06894159015913591BD
:102010006591959105907FE27395E118F10A430B64
:10202000560BC90BD009C0F7E10CF11E431F561F18
:10203000C91FD01D7EF4703311F48A95E6CFE89461
:10204000015030F0080F0AF40027021708F4202F7F
:102050002395022F7A3328F079E37D932A95E9F7C7
:1020600010C07D932A9589F60694979567953795C4
:1020700017951794E118F10A430B560BC90BD009B9
:1020800098F023957E9173957A3308F070E37C93F2
:102090002013B8F77E9170617D9330F0839571E3E2
:1020A0007D9370E32A95E1F71124EF90FF900F9153
:1020B0001F91CF91DF91992787FD90950895FB019E
:1020C000DC0105900D920020E1F70895FB01DC0191
:1020D00001900D920020E1F70895FB0151915523E5
:1020E000A9F0BF01DC014D9145174111E1F759F409
:1020F000CD010190002049F04D9140154111C9F3E7
:10210000FB014111EFCF81E090E001970895BB27DB
:102110004A3031F4992322F4BDE2909581959F4F86
:102120000C94E110BB272A3051F4992342F4BDE20C
:1021300090958095709561957F4F8F4F9F4F0C9430
:10214000BF10592F482F372F262F660F771F881F54
:10215000991F660F771F881F991F620F731F841FB7
:10216000951F660F771F881F991F08957AE0979F24
:10217000902D879F802D910D11240895BB27FA0182
:10218000A62F6217710581059105330B30FB66F0B0
:10219000AA27660F771F881F991FAA1FA21710F082
:1021A000A21B63953850A9F7A05DAA3308F0A95D7A
:1021B000A19336F7B111B1931082CA010C94781231
:1021C000BB27FB015527AA27880F991FAA1FA41711
:1021D00010F0A41B83955051B9F7A05DAA3308F005
:1021E000A95DA193009779F7B111B1931192CB0139
:1021F0000C947812A0E0B0E0E0E0F1E10C94EB1276
:10220000EC017B016115710519F0DB018D939C9345
:102210008E010F5F1F4F7880872D90E00E9457122C
:10222000892B11F0E801F4CFBDE27B1205C00F5FEE
:102230001F4F7980C1E008C0EBE27E1204C08E011E
:102240000E5F1F4F7980C0E06801F1E0CF1AD1081E
:1022500043E050E06AE771E0C6010E946012892BFA
:10226000F1F4680122E0C20ED11C45E050E065E7C0
:1022700071E0C6010E946012892B21F4680187E099
:10228000C80ED11CE114F10419F0D701CD92DC92F3
:10229000C111FFC060E070E080E89FE703C143E048
:1022A00050E062E771E0C6010E946012892B51F490
:1022B000E114F10409F4F2C00E5F1F4FF70111831E
:1022C0000083ECC0680160E070E0CB0100E010E04A
:1022D000F601D0EDD70DDA3058F52C2F2260622EA2
:1022E0002C2F2870C2FF05C0211128C00F5F1F4F7F
:1022F00025C0222311F001501109A5E0B0E09B0197
:10230000AC010E94DC124B015C01880C991CAA1CD8
:10231000BB1CC501B4016D0F711D811D911D683974
:10232000A9E97A078A07A9E19A0740F0C66005C0C3
:10233000DE3F51F4C3FD44C0C8606C2EBFEFCB1A22
:10234000DB0A7080C62DC4CF2D2F2F7D2531C1F51E
:1023500040814D3211F4C06106C04B3221F03196FC
:1023600021E030E006C03296D60111964C9122E071
:1023700030E0A0EDA40FAA3018F0E21BF30B20C050
:1023800040E050E04038BCE05B075CF49A01220F6B
:10239000331F220F331F420F531F440F551F4A0F85
:1023A000511D3196DF0111972C91A0EDA20FAA309B
:1023B00048F3C4FF03C0519541955109040F151FFF
:1023C000C1FF07C0E114F10421F03197D701ED936B
:1023D000FC930E94860DC370C33019F06B017C0121
:1023E00006C06B017C01F7FAF094F7F8F09420E056
:1023F00030E0A901C701B6010E948812882309F4C0
:1024000045C017FF06C0119501951109C1E9D1E03A
:1024100002C0C9EAD1E05E01B8E1AB1AB1084601D9
:10242000BE2DAF2D90E2E92EF12C0E151F0584F084
:10243000FE012591359145915491B4018B2F9A2F2E
:102440000E94190E4B01B82FA92F0E191F09EDCFAD
:102450002497F594E794CA15DB0539F76401EB2E50
:10246000FA2E8E2D880F8F2D881F8F3F49F020E088
:1024700030E0A901C701B6010E948812811106C08F
:1024800082E290E090936C0480936B04C701B601E4
:1024900009C060E070E080E89FEF04C060E070E099
:1024A00080EC9FE7CDB7DEB7EEE00C9407139111F7
:1024B0000C948D12803219F089508550C8F7089518
:1024C000FB01DC014150504088F08D9181341CF0BB
:1024D0008B350CF4805E659161341CF06B350CF427
:1024E000605E861B611171F3990B0895881BFCCF08
:1024F000DC01FC01672F71917723E1F7329704C06B
:102500007C916D9370836291AE17BF07C8F30895F5
:102510000E94860E08F481E008959927882708957F
:10252000DC01CB01FC01F999FECF06C0F2BDE1BD93
:10253000F89A319600B40D9241505040B8F7089582
:10254000F999FECF92BD81BDF89A992780B508957B
:10255000DC01A40FB51F4150504048F0CB01840F5F
:10256000951F2E910E94B91241505040D0F7089506
:10257000262FF999FECF92BD81BDF89A019700B43C
:10258000021639F01FBA20BD0FB6F894FA9AF99ADC
:102590000FBE08950396272F0E94B9120E94B81209
:1025A000252F0E94B912242F0C94B9120196272FBF
:1025B0000E94B9120C94B8120E94AA0EA59F900D09
:1025C000B49F900DA49F800D911D112408952F920A
:1025D0003F924F925F926F927F928F929F92AF92B3
:1025E000BF92CF92DF92EF92FF920F931F93CF9300
:1025F000DF93CDB7DEB7CA1BDB0B0FB6F894DEBF97
:102600000FBECDBF09942A88398848885F846E84BC
:102610007D848C849B84AA84B984C884DF80EE8006
:10262000FD800C811B81AA81B981CE0FD11D0FB60F
:10263000F894DEBF0FBECDBFED010895F894FFCF33
:10264000D406CA06C506BC064E0B0E071107F806CF
:10265000E2061C073C01A70200003B012D0100001F
:10266000000000000000000000000000000000006A
:10267000000000000000000000000000000000005A
:10268000000000000000000000000000000000004A
:10269000000000000000000000000000000000003A
:1026A000000000000000000000000000000000002A
:1026B000000000000000000000000000000000001A
:1026C000000000000000000000000000000000000A
:1026D00000000000000000000000000000000000FA
:1026E00000000000000000000000000000000000EA
:1026F00000000000000000000000000000000000DA
:1027000000000000000000000000000000000000C9
:1027100000000000000000000000000000000000B9
:1027200000000000000000000000000000000000A9
:102730000000000000000000000000000000000099
:102740000000000000000000000000000000000089
:102750000000000000000000000000000000000079
:102760000000000000000000000000000000000069
:102770000000000000000000000000000000000059
:102780000000000000000000000000000000000049
:102790000000000000000000000000000000000039
:1027A0000000000000000000000000000000000029
:1027B0000000000000000000000000000000000019
:1027C0000000000000000000000000000000000009
:1027D00000000000000000000000000000000000F9
:1027E0000000000000000000F203003D00434D4FD8
:1027F00044450055415254002C302C3000343830C0
:10280000300039363030003139323030003338342E
:10281000303000353736303000313135323030002D
:10282000323330343030005FBD022FC20217C7028E
:102830000BCD0207D30203D90201E0020D0A0041C9
:10284000542B005765696768745363616C65733412
:1028500000484330342E33362E36004E414D45006D
:10286000534E41004253540044434F0047425400EA
:1028700044544D0053434F005652530044415400BA
:102880004F4B004552524F520046414400544F4670
:1028900000434254005347440055474400504744C6
:1028A0000050484E00485257004443480047434FA9
:1028B0000043544D00504F46005352430028030D2F
:1028C0004B0C2C0307AF09300310580A34030E1EBB
:1028D0000C38030AE4083C0312940A400301C608BA
:1028E000430302C808490304FC084D03057309515A
:1028F00003063809550314B30A590315D20A5D03B8
:1029000016F10A610317100B200308C209240309FA
:10291000EF0965030BF00869030C5D0C6D030F668E
:1029200009710311670A750318CA0879031A2F0B76
:00000001FF
