:100000000C94D7000C94F4000C94F4000C94F400BD
:100010000C94EE070C94F4000C94CA070C94F400B2
:100020000C94F4000C94F4000C94F4000C94F40080
:100030000C94F4000C943F070C94F4000C94F4001E
:100040000C9479070C94F4000C9415070C94F400AC
:100050000C94F4000C94F4000C94F4000C94F40050
:100060000C94F4000C94F400696E6600494E46004E
:100070006E616E004E414E0000407A10F35A00A0AF
:10008000724E18090010A5D4E80000E87648170061
:1000900000E40B54020000CA9A3B000000E1F505A1
:1000A000000080969800000040420F000000A086EB
:1000B00001000000102700000000E803000000001D
:1000C0006400000000000A000000000001000000C1
:1000D00000002C76D888DC674F0823DFC1DFAE59DB
:1000E000E1B1B796E5E3E453C63AE651997696E86E
:1000F000E6C28426EB898C9B62ED407C6FFCEFBCF2
:100100009C9F40F2BAA56FA5F490055A2AF75C931C
:100110006B6CF9676DC11BFCE0E40D47FEF520E652
:10012000B500D0ED902E0300943577050080841E35
:10013000080000204E0A000000C80C333333330F90
:10014000986E12831141EF8D2114893BE65516CF2D
:10015000FEE6DB18D1844B381BF77C1D901DA4BB39
:10016000E424203284725E228100C9F124ECA1E5EE
:100170003D274E414E494E495459494E46CDCCCC6F
:100180003D0AD7233C17B7D13877CC2B329595E66B
:10019000241FB14F0A000020410000C84200401C4B
:1001A0004620BCBE4CCA1B0E5AAEC59D740011241D
:1001B0001FBECFEFD4E0DEBFCDBF12E0A0E0B1E0C4
:1001C000E4EAF6E202C005900D92AA37B107D9F72A
:1001D00024E0AAE7B2E001C01D92A538B207E1F71A
:1001E0000E94C0070C9450130C9400002A98E091D0
:1001F0000A01F0910B018FEF0995E0910A01F0914E
:100200000B018FEF0995E0910A01F0910B018FEF3F
:100210000995E0910A01F0910B018FEF099589E9A9
:1002200093E00197F1F700C00895CF93DF93809199
:10023000E9028B7599F0E0910601F09107010995AB
:1002400090E0A0E0B0E0DC01992788278093EE02DF
:100250009093EF02A093F002B093F102E0910601B7
:10026000F09107010995C7EED2E04F815885698565
:100270007A85582B4F83588769877A87E0910601E2
:10028000F091070109954F81588569857A85482B3A
:100290004F83588769877A87DF91CF910895E1EC82
:1002A000F0E0808180688083EFE6F0E0808181600B
:1002B0008083EEE6F0E08081816080830895CF93B3
:1002C000DF93E0910401F091050180818F7B8083B1
:1002D000E0910401F09105018081877C8860808332
:1002E0000E944F012A98C7EED2E0E0910A01F091F6
:1002F0000B0188810995E0910801F09109018B813A
:100300009C8109950E944F01DF91CF910895E1EC06
:10031000F0E080818F778083EEE6F0E080818E7F51
:100320008083EFE6F0E080818E7F80830895CF9315
:10033000DF93E0910401F091050180818064808366
:10034000E0910401F09105018081877C80628083C7
:100350000E9487012A98E0910A01F0910B01809197
:10036000E70209951C99FECFE0910601F091070183
:100370000995C7EED2E08A830E944F018A81DF91FE
:10038000CF910895CF92DF92EF92FF92CF930E9488
:100390008701E0910A01F0910B018091E702099534
:1003A0001C99FECF8091E9028B7569F0E0910601FE
:1003B000F09107010995C82ED12CE12CF12C760182
:1003C000DD24CC2403C0C12CD12C7601E0910601A0
:1003D000F09107010995C82FE0910601F0910701FE
:1003E0000995C82ADC2A0E944F01C701B601CF91A6
:1003F000FF90EF90DF90CF900895CF93DF93E0913F
:100400000401F0910501808180648083E091040102
:10041000F09105018081877C886080830E9487013C
:100420002A98E0910A01F0910B018091E702099569
:100430001C99FECFE0910601F09107010995C7EEE6
:10044000D2E01B828C83E0910601F09107010995AF
:100450002B813C81282B3C832B830E944F018B8175
:100460009C81DF91CF910895CF93DF93E0910401B8
:10047000F0910501808180648083E0910401F09116
:1004800005018081877C806180830E9487012A9892
:10049000E0910A01F0910B018091E70209951C9906
:1004A000FECFE0910601F09107010995C7EED2E079
:1004B0001D828E83E0910601F091070109952D813F
:1004C0003E81282B3E832D830E944F018D819E818A
:1004D000DF91CF910895CF93DF93E0910401F091E4
:1004E000050180818F7B8083E0910401F0910501FB
:1004F0008081877C806180830E9487012A98C7EE73
:10050000D2E0E0910A01F0910B0188810995E09118
:100510000801F09109018D819E8109950E944F018A
:10052000DF91CF910895CF93C82FE0910201F09110
:10053000030167708081887F682B60830E946B0253
:10054000E0910001F09101019C2F9295990F907E0E
:1005500081818F71892B8183299A81E38A95F1F7B3
:1005600000000E945F011C99FECF2998E0910401D0
:10057000F09105018081806480832A98CD7FC4300A
:1005800099F4E0910401F09105018081877C8063FA
:1005900080830E94C2016093F2027093F302809301
:1005A000F4029093F50211C0E0910401F09105016D
:1005B0008081886380830E94C2016093F6027093F9
:1005C000F7028093F8029093F902CF910895E09199
:1005D0000C01F0910D0109952A9A219A0E94F600CA
:1005E0000E94FD010E9434020E949701E0910201E5
:1005F000F0910301818180618183E0910201F0919A
:10060000030181818F7D8183E091B001F091B1017F
:100610008081803110F08FE08083A091B001B09193
:10062000B101EAEEF2E08C91982F9F708081807F7B
:10063000892B80830E945F010E946B0260E084E04E
:100640000E94930266E084E00E9493020895CF9393
:10065000DF93C82F299A81E38A95F1F700000E9461
:100660008701E0910201F0910301C7708081887FCA
:10067000C82BC0832A98E0910001F091010181818B
:100680008F71806281830E946B020E945F011C99BE
:10069000FECFE0910401F0910501808180648083A8
:1006A000E0910401F09105018081877C886180835D
:1006B000C7EED2E0E0910A01F0910B018881099523
:1006C0000E9415010E944F0129986F8178858985C4
:1006D0009A85DF91CF910895CF92DF92FF920F9389
:1006E0001F93CF93DF93C82FE7EEF2E005811681C9
:1006F000C380D4800E948701E0910201F091030140
:100700008C2F87709081987FF92EF82AF0822A9892
:10071000E0910201F091030181818F7E8183E0915C
:100720000001F091010181818F71806281830E94BB
:100730006B020E945F011C99FECFE0910401F091D1
:100740000501808180648083E0910401F0910501BE
:100750008081877C88618083C7EED2E0E0910A01C6
:10076000F0910B01888109950E9415010E944F01AB
:100770001E830D83DC82CB826F81788589859A8583
:10078000DF91CF911F910F91FF90DF90CF9008954F
:10079000AAE7B0E08C9180688C93ECE7F0E0808170
:1007A0008F7D808380818F77808380818064808348
:1007B0008081807F80838081876080838C91887F27
:1007C0008C938C9187608C930895A2E0B0E0EBEE5F
:1007D000F3E00C94000F8091780089838091790078
:1007E0008A8389819A812296E2E00C941C0FA8E00A
:1007F000B0E0EDEFF3E00C94FC0EFE01319688E0E2
:10080000DF011D928A95E9F70AE710E07E01B9E061
:10081000EB0EF11C8D819E8198878F838B819C814B
:100820009E838D8389819A819C838B837894F80140
:10083000808180648083D8018C9184FFFCCF0E94EA
:10084000E5039A838983FE013196AC0121913191B0
:10085000821793070CF4C901241735070CF4A9017A
:10086000EE15FF0599F74A5F5F4F4817590794F255
:100870002896E6E00C94180FEF92FF921F93CF9307
:10088000DF93A895ECE7F0E09081907F90839081D2
:10089000892B80830E94F70318E0E12CF12CCAE732
:1008A000D0E0A895988190649883988194FFFDCFBB
:1008B0000E94E503E80EF91E115099F7C7019695BD
:1008C00087959695879596958795DF91CF911F91FE
:1008D000FF90EF900895E091B201F091B301808113
:1008E00091818130944010F0118210820895CF924E
:1008F000DF92EF92FF92CF93DF93E091B201F091FC
:10090000B30191838083C091B201D091B30168811A
:10091000798180E090E00E94BD0D6B017C019B011C
:10092000AC016DEC7CEC84E890E40E941C0D9B0112
:10093000AC016AE979E989E490E40E941C0D0E9407
:100940008E0D7B836A8380E090E00E94BD0D9B0149
:10095000AC01C701B6010E94AA0C20E030E048ECCF
:1009600052E40E941C0D6C837D838E839F83DF91F4
:10097000CF91FF90EF90DF90CF900895CF93DF93CA
:10098000C091B201D091B3012A813B81821B930BAC
:10099000BC0180E090E00E94BD0D2C813D814E8124
:1009A0005F810E941C0D0E948E0D862FDF91CF91DA
:1009B0000895CF92DF92EF92FF92E091B201F09111
:1009C000B30171836083853608F084E6682F70E098
:1009D00080E090E00E94BF0D2AE037ED43E25CE347
:1009E0000E94740E2AE939E949E450E40E94AB0CF4
:1009F0006B017C01E091B201F091B30180819181A2
:100A0000BC0180E090E00E94BD0D9B01AC01C701DC
:100A1000B6010E941C0D9B01AC016DEC7CEC84E8DE
:100A200090E40E941C0D20E030E040E854E40E9475
:100A30006F0E181624F480E094E00E947704FF9073
:100A4000EF90DF90CF900895CF93DF93EC010E9459
:100A50006B04E091B201F091B301808191818C1718
:100A60009D0718F4CE010E947704CE010E94BE04B7
:100A7000853620F0BE0184E60E94D904DF91CF9133
:100A80000895459A0895459808953D9A0E94430512
:100A9000089598B180E2892788B90895CF93C82F27
:100AA000662329F1E091B401F091B501808188239A
:100AB000B9F007C0E091B401F091B501908199239C
:100AC00079F0E0910E01F0910F010995E091810418
:100AD000F091820481E090819C1751F080E008C081
:100AE000E3E3F7E03197F1F7615021F701C080E0CF
:100AF000CF910895E091B401F091B5011082109268
:100B00007F025A9A8FEF97E40197F1F700C0000037
:100B10005A989FEF2FE786E1915020408040E1F7FF
:100B200000C000006FEF81E00E944E050895CF9352
:100B3000DF93EC01E091B401F091B50110821092C5
:100B40007F02E0911601F09117018BEC91E009957D
:100B5000E0911601F0911701CE010995E09116017F
:100B6000F091170188EC91E009956FEF88E00E9401
:100B70004E05DF91CF9108950F931F93CF93DF938D
:100B80008C01EB01E091B401F091B501108210925B
:100B90007F02E0911601F09117018BEC91E009952D
:100BA000E0911601F0911701C8010995E091140137
:100BB000F0911501CE010995E0911601F091170110
:100BC00088EC91E009956FEF88E00E944E05DF9177
:100BD000CF911F910F9108957894E091AE01F0911B
:100BE000AF018081863010F081E08083E091AE011A
:100BF000F091AF01A081B0E0AE53BE4FE091100183
:100C0000F09111018C910995E0911201F09113017D
:100C10000995A8950E947A0581112FC0E091AE0137
:100C2000F091AF0191E09083E091AE01F091AF01BE
:100C3000A081A63028F5B0E0AE53BE4FE091100180
:100C4000F09111018C910995E0911201F09113013D
:100C50000995A8950E947A05811111C0E091AE0115
:100C6000F091AF0190819F5F9083E091AE01F09190
:100C7000AF01A081A630F8F2089581E0089581E0E7
:100C80000895529A0E94EC05811101C0FFCF8AEBB2
:100C900091E00E9497058EEB91E00E9497050895E0
:100CA000399A419A08953998089584B18C6284B92B
:100CB0008CE58CBD8DB581608DBD08958EBD0DB464
:100CC00007FEFDCF0895CF93C82F892F0E945E069F
:100CD0008C2F0E945E06CF9108951EBC0DB407FEB6
:100CE000FDCF8EB50895E0ECF0E0908195FFFDCF4B
:100CF0008093C60008950F931F93CF93FC018081CA
:100D0000882359F08F01C0E00E947306CF5FF8017D
:100D1000EC0FF11D80818111F7CFCF911F910F91C1
:100D200008950F931F93CF93FC018081882359F07E
:100D30008F01C0E00E947306CF5FF801EC0FF11D38
:100D400080818111F7CFCF911F910F9108958093EA
:100D5000C400089588E98093C10086E08093C200B2
:100D6000089580B7806880BF40E251E060E070E0A5
:100D700081E693E00E94F9120E9441060E94C80396
:100D80000E94E702A998EEE6F0E08081816080830E
:100D9000B198EFE6F0E0808181608083ECE6F0E0DE
:100DA0008081886080838091750390917603885557
:100DB0009240893B9B4038F088E592E0909376031F
:100DC0008093750304C010927E0210927D0287E02A
:100DD0000E943C040E94240540E251E060E070E083
:100DE00081E693E00E94111380E00E94570C83E09B
:100DF0008093FB0286E98093FC02E8E6F0E08081C4
:100E00008260808316BC85B5856085BD8FED93EECD
:100E10009093850080938400E1E8F0E08081856014
:100E200080830E94D60BA895FCCF1F920F920FB61D
:100E30000F9211242F933F934F935F936F937F9360
:100E40008F939F93AF93BF93EF93FF938091C600CF
:100E50009091E602911102C00E943C0CFF91EF912B
:100E6000BF91AF919F918F917F916F915F914F91C2
:100E70003F912F910F900FBE0F901F9018951F92CA
:100E80000F920FB60F9211242F933F934F935F93BE
:100E90006F937F938F939F93AF93BF93EF93FF9342
:100EA00080917D0290917E02019690937E028093C4
:100EB0007D0220917503309176032817390710F4CD
:100EC0000E9453068FED93EE9093850080938400EB
:100ED000FF91EF91BF91AF919F918F917F916F9112
:100EE0005F914F913F912F910F900FBE0F901F90E8
:100EF00018951F920F920FB60F9211242F933F93C4
:100F00004F935F936F937F938F939F93AF93BF9311
:100F1000EF93FF9380917C028F5F80937C0290918E
:100F2000FB02891718F40E94410502C00E94430584
:100F300090917C028091FC02891710F410927C023F
:100F4000FF91EF91BF91AF919F918F917F916F91A1
:100F50005F914F913F912F910F900FBE0F901F9077
:100F60001895F894A89588E18093600099E20FB6EF
:100F7000F894A895809360000FBE90936000089548
:100F80000E9450060E94B1070E9445050E9441053B
:100F90000E94B1061F920F920FB60F9211242F9349
:100FA0003F934F935F936F937F938F939F93AF93F1
:100FB000BF93EF93FF930E945306FF91EF91BF9170
:100FC000AF919F918F917F916F915F914F913F91E1
:100FD0002F910F900FBE0F901F9018951F920F9298
:100FE0000FB60F9211242F933F934F935F936F93FC
:100FF0007F938F939F93AF93BF93EF93FF93339B15
:1010000064C010927E0210927D020E9441052FEF73
:101010008FE392E0215080409040E1F700C0000053
:1010200080917A0290917B02019690937B0280934B
:101030007A02339907C00E94430510927B021092F6
:101040007A0243C0A8958897E8F12FEF8FE191E0ED
:10105000215080409040E1F700C000008FEC91E00B
:101060000E9497052FEF8FE392E02150804090403F
:10107000E1F700C0000086EB91E00E9497055A9AC4
:101080002FEF8FE392E0215080409040E1F700C0C5
:1010900000000E9443053399FECF2FEF8FE39BE0C2
:1010A000215080409040E1F700C000000E945306AC
:1010B0002FEF8FE39BE0215080409040E1F700C08C
:1010C000000003C00E944905A2CFFF91EF91BF919C
:1010D000AF919F918F917F916F915F914F913F91D0
:1010E0002F910F900FBE0F901F90189580E00895DC
:1010F00080E00895DC0112969EE0E3EDF1E00190BE
:101100000D929A95E1F781E00895DC0112969BE03B
:10111000E1EEF1E001900D929A95E1F781E00895FA
:101120006CEE71E08EEE91E00E94BC0580E00895C7
:1011300062EF71E087EF91E00E94BC0580E00895C6
:101140008EEB91E00E94970580E008958BEF91E08F
:101150000E94970583E08093FB0286E48093FC0263
:1011600080E008958EEB91E00E94970583E08093E4
:10117000FB0286E98093FC0280E0089502960E94BB
:10118000CE0F6093FA0280E008951F93CF93DF9310
:10119000EC018A8181110DC08AE190E00E9409135F
:1011A000BE016E5F7F4F4AE090E00E94F51081E043
:1011B00016C0CE0102960E94CE0F162F603170F439
:1011C0008AE190E00E942113EAEEF2E01F70808134
:1011D000807F182B10831A8281E001C080E0DF91AC
:1011E000CF911F9108950F931F93CF93DF93FC012D
:1011F00022812223B9F0EC0187E00E943C048C019B
:10120000CE0102960E94B00FB8010E94D90448E0B6
:1012100050E06CE070E08DE693E00E9411131A82BA
:1012200081E001C080E0DF91CF911F910F9108957F
:10123000AC014E5F5F4F60917703709178038091AE
:10124000790390917A032AE00E94001181E00895C9
:10125000CF93DF93EC0180E00E942703AE014E5F45
:101260005F4F2AE00E94001181E0DF91CF91089545
:10127000CF93DF93EC018A8181111AC0AE014E5FDA
:101280005F4F2091750330917603A9E8B8E80E947A
:10129000E10E96958795929582958F7089279F701C
:1012A0008927BC0180E090E02AE00E9400112BC059
:1012B000CE0102960E94CE0F2CE3269FA001279F0D
:1012C000500D11245093760340937503483582E006
:1012D000580738F488E592E090937603809375037D
:1012E00009C041315E4030F080E19EE0909376038A
:1012F00080937503609175037091760384E190E0AB
:101300000E943F131A8281E0DF91CF910895CF931D
:10131000DF93EC0187E00E943C040E94BE04BE0102
:101320006E5F7F4F4AE090E00E94F51081E0DF9110
:10133000CF9108951F93CF93DF93EC0129E989E5BD
:1013400091E0215080409040E1F700008FEC91E067
:101350000E949705882329F12FEF8FE392E0215017
:1013600080409040E1F700C00000BE016E5F7F4FFB
:101370008FEF91E00E94BC05182F2FEF8FE392E0D2
:10138000215080409040E1F700C000008BEF91E0D9
:101390000E949705882329F081E0111101C080E0A7
:1013A0001A82DF91CF911F910895A5E0B0E0EBED97
:1013B000F9E00C94FA0E8C01DC01ED91FC9185E0D2
:1013C000DE01119601900D928A95E1F7F801828174
:1013D000882309F44DC07801F2E0EF0EF11CC7013B
:1013E0000E94B00F6C018FEF8C0D853008F054C057
:1013F00029E989E591E0215080409040E1F7000023
:101400008FEC91E00E949705882309F44AC0B70148
:1014100083E092E00E94BC05882391F0D601BB27AF
:10142000AE53BE4FE0911001F09111018C910995DE
:101430006C2D8BE190E00E942113FF24F39401C0F6
:10144000F12CA895AFEFBFEFE6E8A150B040E04027
:10145000E1F700C000008BEF91E00E949705882320
:10146000E9F0D80112961C92F1100FC080E019C06B
:101470008BE190E00E9409134AE0B8016E5F7F4F54
:1014800090E00E94F510FF24F394CE010196F8013C
:10149000918380838F2D05C080E003C0D801129610
:1014A0001C922596E8E00C94160F8F929F92AF92B3
:1014B000BF92EF92FF920F931F93CF93DF93CDB71D
:1014C000DEB72597DEBFCDBF8C01DC01ED91FC912D
:1014D00085E0DE01119601900D928A95E1F7F80101
:1014E0008281882309F44FC07801F2E0EF0EF11CED
:1014F000C7010E94B00FBC01990F880B990B0E9485
:10150000BF0D4B015C0120E030E04CE852EC0E9442
:101510006F0E882354F420E030E040E850E4C50129
:10152000B4010E94170D1816B4F129E989E591E07C
:10153000215080409040E1F700008FEC91E00E9444
:101540009705882379F1B70187E092E00E94BC05F6
:10155000F82EA895AFEFBFEFE6E8A150B040E0400D
:10156000E1F700C000008BEF91E00E94970588230F
:10157000B1F081E0F11001C080E0D80112961C9218
:10158000882359F001C081E09E012F5F3F4FF80191
:101590003183208307C080E005C080E003C0D8010C
:1015A00012961C922596DEBFCDBFDF91CF911F9181
:1015B0000F91FF90EF90BF90AF909F908F90089504
:1015C000CF93DF93EC0186E00E946C03AE014E5F87
:1015D0005F4F2AE00E94001181E0DF91CF910895D2
:1015E0000F93CF93DF93EC018A81811110C0AE017C
:1015F0004E5F5F4F6091610370916203809163035E
:101600009091640300E025E00E94270F13C0CE01F3
:1016100002960E94AC0FAB01BC0140936103509352
:101620006203609363037093640380E090E00E9420
:1016300033131A8281E0DF91CF910F910895CF93F8
:10164000DF93EC018A81811109C044E650E06CE12E
:1016500070E0CE0102960E94F91209C044E650E003
:101660006CE170E0CE0102960E9411131A8281E0B3
:10167000DF91CF910895CF93DF93EC018A8181119F
:1016800009C040E250E060EA70E0CE0102960E949C
:10169000F91209C040E250E060EA70E0CE01029623
:1016A0000E9411131A8281E0DF91CF910895CF93A8
:1016B000DF93EC018A81811109C040E250E060ECC7
:1016C00070E0CE0102960E94F91209C040E250E09B
:1016D00060EC70E0CE0102960E9411131A8281E044
:1016E000DF91CF910895CF93DF93EC018A8181112F
:1016F00009C040E250E060EE70E0CE0102960E9428
:10170000F91209C040E250E060EE70E0CE010296AE
:101710000E9411131A8281E0DF91CF910895CF9337
:10172000DF93EC018A81811109C040E250E060E062
:1017300071E0CE0102960E94F91209C040E250E029
:1017400060E071E0CE0102960E9411131A8281E0DE
:10175000DF91CF910895CF93DF93EC018A818111BE
:1017600009C040E250E060E870E0CE0102960E94BD
:10177000F91209C040E250E060E870E0CE01029644
:101780000E9411131A8281E0DF91CF910895DC014C
:10179000ED91FC91808191810E947B0688EC91E023
:1017A0000E947B060E94530680E008958091E60225
:1017B000882311F1E0918002F09181020380F4818D
:1017C000E02D80E892E00995882381F0E091800285
:1017D000F0918102808191810E947B0682E892E0F3
:1017E0000E947B0688EC91E00E947B061092E60244
:1017F00010927E0210927D020895EF92FF920F9355
:101800001F93CF93DF9308E111E0C0E0D0E07E01A9
:10181000F801608171818DEF92E00E94DB10892BCD
:10182000F1F0CE01880F991F880F991F8C0F9D1F13
:101830009C01285E3E4F3093810220938002865E99
:101840009E4F909382048093810460E073E082E86D
:1018500092E00E94D41081E08093E60208C02196B5
:101860000B5F1F4FCE31D10591F61092E602CDB736
:10187000DEB7E6E00C94180F8A3049F08D3061F441
:10188000E0917F02F0E0E350FD4F108208950E9446
:10189000FD0B10927F020895E0917F0291E09E0F70
:1018A00090937F02F0E0E350FD4F80830895CF9244
:1018B000DF92EF92FF92CF93C82FA8950E94270343
:1018C0006B017C01A8958C2F0E942703C60ED71EA2
:1018D000E81EF91EF694E794D794C794C092770354
:1018E000D0927803E0927903F0927A03CF91FF903F
:1018F000EF90DF90CF900895CF93DF93EC0180E0DD
:101900000E94570C1A8281E0DF91CF9108950F93C6
:101910001F930E9427030091770310917803209171
:10192000790330917A03601B710B820B930B1F912B
:101930000F910895CF93DF93EC0180E00E94870C14
:10194000AE014E5F5F4F2AE00E94001181E0DF91FF
:10195000CF9108955058BB27AA270E94C20C0C941F
:10196000350E0E94270E38F00E942E0E20F039F41A
:101970009F3F19F426F40C94240E0EF4E095E7FB37
:101980000C941E0EE92F0E94460E58F3BA176207F8
:1019900073078407950720F079F4A6F50C94680E78
:1019A0000EF4E0950B2EBA2FA02D0B01B90190017A
:1019B0000C01CA01A0011124FF27591B99F0593FBE
:1019C00050F4503E68F11A16F040A22F232F342F06
:1019D0004427585FF3CF469537952795A795F04054
:1019E0005395C9F77EF41F16BA0B620B730B840B69
:1019F000BAF09150A1F0FF0FBB1F661F771F881F21
:101A0000C2F70EC0BA0F621F731F841F48F4879578
:101A100077956795B795F7959E3F08F0B0CF93956A
:101A2000880F08F09927EE0F9795879508950E94E3
:101A3000FA0D08F481E008950E94300D0C94350EE3
:101A40000E942E0E58F00E94270E40F029F45F3FAE
:101A500029F00C941E0E51110C94690E0C94240E56
:101A60000E94460E68F39923B1F3552391F3951B19
:101A7000550BBB27AA2762177307840738F09F5FAF
:101A80005F4F220F331F441FAA1FA9F335D00E2E1C
:101A90003AF0E0E832D091505040E695001CCAF789
:101AA0002BD0FE2F29D0660F771F881FBB1F26174C
:101AB00037074807AB07B0E809F0BB0B802DBF0123
:101AC000FF2793585F4F3AF09E3F510578F00C94F2
:101AD0001E0E0C94690E5F3FE4F3983ED4F3869596
:101AE00077956795B795F7959F5FC9F7880F911D13
:101AF0009695879597F90895E1E0660F771F881FFF
:101B0000BB1F621773078407BA0720F0621B730BB1
:101B1000840BBA0BEE1F88F7E09508950E944E0ED5
:101B200088F09F5798F0B92F9927B751B0F0E1F09E
:101B3000660F771F881F991F1AF0BA95C9F714C04E
:101B4000B13091F00E94680EB1E008950C94680ED7
:101B5000672F782F8827B85F39F0B93FCCF3869587
:101B600077956795B395D9F73EF4909580957095E4
:101B700061957F4F8F4F9F4F0895E89409C097FB61
:101B80003EF490958095709561957F4F8F4F9F4F54
:101B90009923A9F0F92F96E9BB279395F695879598
:101BA00077956795B795F111F8CFFAF4BB0F11F45B
:101BB00060FF1BC06F5F7F4F8F4F9F4F16C0882302
:101BC00011F096E911C0772321F09EE8872F762F38
:101BD00005C0662371F096E8862F70E060E02AF079
:101BE0009A95660F771F881FDAF7880F9695879565
:101BF00097F90895990F0008550FAA0BE0E8FEEF3A
:101C000016161706E807F907C0F012161306E407C0
:101C1000F50798F0621B730B840B950B39F40A26B9
:101C200061F0232B242B252B21F408950A2609F497
:101C3000A140A6958FEF811D811D089597F99F679B
:101C400080E870E060E008959FEF80EC0895002444
:101C50000A941616170618060906089500240A9411
:101C600012161306140605060895092E0394000C97
:101C700011F4882352F0BB0F40F4BF2B11F460FF26
:101C800004C06F5F7F4F8F4F9F4F089557FD90584F
:101C9000440F551F59F05F3F71F04795880F97FB30
:101CA000991F61F09F3F79F08795089512161306EA
:101CB0001406551FF2CF4695F1DF08C01616170619
:101CC0001806991FF1CF869571056105089408954E
:101CD000E894BB2766277727CB0197F908950E94E0
:101CE000FA0D08F48FEF08950E94870E0C94350EBC
:101CF0000E94270E38F00E942E0E20F0952311F03E
:101D00000C941E0E0C94240E11240C94690E0E9447
:101D1000460E70F3959FC1F3950F50E0551F629FDB
:101D2000F001729FBB27F00DB11D639FAA27F00D34
:101D3000B11DAA1F649F6627B00DA11D661F829F5B
:101D40002227B00DA11D621F739FB00DA11D621F40
:101D5000839FA00D611D221F749F3327A00D611D5D
:101D6000231F849F600D211D822F762F6A2F11243F
:101D70009F5750409AF0F1F088234AF0EE0FFF1F72
:101D8000BB1F661F771F881F91505040A9F79E3FC9
:101D9000510580F00C941E0E0C94690E5F3FE4F325
:101DA000983ED4F3869577956795B795F795E7951F
:101DB0009F5FC1F7FE2B880F911D9695879597F928
:101DC0000895A29FB001B39FC001A39F700D811D14
:101DD0001124911DB29F700D811D1124911D089534
:101DE0002F923F924F925F926F927F928F929F922B
:101DF000AF92BF92CF92DF92EF92FF920F931F9319
:101E0000CF93DF93CDB7DEB7CA1BDB0B0FB6F894C9
:101E1000DEBF0FBECDBF09942A88398848885F8409
:101E20006E847D848C849B84AA84B984C884DF807A
:101E3000EE80FD800C811B81AA81B981CE0FD11D5E
:101E40000FB6F894DEBF0FBECDBFED010895CF925F
:101E5000DF92FF920F931F93CF93DF93EA01F02E4F
:101E6000122F283008F017E000E0212FAE010E9469
:101E7000F50F9881292F2870DE0190FF06C02111EF
:101E800004C011962DE228830CC0F1FE03C0119608
:101E90003BE204C0F0FE03C0119630E2388321110A
:101EA00005C092FF0DC068E670E002C060E770E018
:101EB000F2FE02C06C5F7F4FCD010E94CD1043C087
:101EC000FD01319629812C93213309F09F7E112346
:101ED000B9F0AE014E5F5F4F6F01312F2EE2DA0194
:101EE0006D91AD01D6012D936D013150262FB9F7BB
:101EF0001150DF01A10FB11DFD01329611966C93B7
:101F0000F2FC02C025E601C025E42083DF01129621
:101F100087FF04C09DE29183819508C0811104C0B0
:101F200094FF02C09DE201C09BE2918390E38A305E
:101F30001CF09F5F8A50FBCF9C93805D11968C9321
:101F4000119712961C92CE01DF91CF911F910F91A4
:101F5000FF90DF90CF900895662777270C94681143
:101F6000FC0188279927E89421912032E9F3293050
:101F700010F02E30C8F32B3241F02D3239F4689432
:101F800004C00E942411820F911D219120532A30F8
:101F9000C0F31EF4909581959F4F08951F93FC0107
:101FA00099278827BC01E89411911032E9F3193080
:101FB00010F01E30C8F31B3251F01D3249F4689402
:101FC00006C00E940F11610F711D811D911D11919D
:101FD00010531A30B0F33EF490958095709561954A
:101FE0007F4F8F4F9F4F1F910895283008F027E0B3
:101FF0003327DA01990F311D87FD91600096610545
:10200000710539F432602E5F3D9330E32A95E1F794
:1020100008959F3F30F080387105610509F03C5FFD
:102020003C5F3D93913008F08068911DDF93CF9322
:102030001F930F93FF92EF92192F987F9695E92F98
:1020400096959695E90FFF27EE52FF4F9927332774
:10205000EE24FF24A701E70105900894079428F4D3
:10206000360FE71EF81E491F511D660F771F881F88
:10207000991F0694A1F70590079428F4E70EF81E1F
:10208000491F561FC11D770F881F991F661F069491
:10209000A1F70590079428F4F80E491F561FC71F93
:1020A000D11D880F991F661F771F0694A1F7059011
:1020B000079420F4490F561FC71FD81F990F661F9A
:1020C000771F881F0694A9F784911095177041F027
:1020D000D695C79557954795F794E7941A95C1F704
:1020E000E8E7F0E068941590159135916591959128
:1020F00005907FE27395E118F10A430B560BC90B6B
:10210000D009C0F7E10CF11E431F561FC91FD01D97
:102110007EF4703311F48A95E6CFE894015030F0E4
:10212000080F0AF40027021708F4202F2395022F26
:102130007A3328F079E37D932A95E9F710C07D93EF
:102140002A9589F60694979567953795179517946C
:10215000E118F10A430B560BC90BD00998F02395EF
:102160007E9173957A3308F070E37C932013B8F76F
:102170007E9170617D9330F0839571E37D9370E380
:102180002A95E1F71124EF90FF900F911F91CF91C5
:10219000DF91992787FD90950895FB01DC0105905B
:1021A0000D920020E1F70895FB01DC0101900D92F2
:1021B0000020E1F70895FB0151915523A9F0BF01DB
:1021C000DC014D9145174111E1F759F4CD01019022
:1021D000002049F04D9140154111C9F3FB01411117
:1021E000EFCF81E090E001970895BB274A3031F4AA
:1021F000992322F4BDE2909581959F4F0C944F1145
:10220000BB272A3051F4992342F4BDE29095809582
:10221000709561957F4F8F4F9F4F0C942D11592FC3
:10222000482F372F262F660F771F881F991F660F9D
:10223000771F881F991F620F731F841F951F660FDA
:10224000771F881F991F08957AE0979F902D879F89
:10225000802D910D11240895BB27FA01A62F621736
:10226000710581059105330B30FB66F0AA27660FD7
:10227000771F881F991FAA1FA21710F0A21B639532
:102280003850A9F7A05DAA3308F0A95DA19336F7ED
:10229000B111B1931082CA010C94E612BB27FB0165
:1022A0005527AA27880F991FAA1FA41710F0A41B4F
:1022B00083955051B9F7A05DAA3308F0A95DA193A9
:1022C000009779F7B111B1931192CB010C94E612FA
:1022D000A0E0B0E0EEE6F1E10C94F40EEC017B013D
:1022E0006115710519F0DB018D939C938E010F5FD1
:1022F0001F4F7880872D90E00E94C512892B11F026
:10230000E801F4CFBDE27B1205C00F5F1F4F79805B
:10231000C1E008C0EBE27E1204C08E010E5F1F4FC9
:102320007980C0E06801F1E0CF1AD10843E050E0C5
:102330006AE771E0C6010E94CE12892BF1F46801B0
:1023400022E0C20ED11C45E050E065E771E0C60115
:102350000E94CE12892B21F4680187E0C80ED11C9F
:10236000E114F10419F0D701CD92DC92C111FFC044
:1023700060E070E080E89FE703C143E050E062E77F
:1023800071E0C6010E94CE12892B51F4E114F104D0
:1023900009F4F2C00E5F1F4FF70111830083ECC0F8
:1023A000680160E070E0CB0100E010E0F601D0EDE4
:1023B000D70DDA3058F52C2F2260622E2C2F287082
:1023C000C2FF05C0211128C00F5F1F4F25C0222367
:1023D00011F001501109A5E0B0E09B01AC010E9491
:1023E00045134B015C01880C991CAA1CBB1CC50140
:1023F000B4016D0F711D811D911D6839A9E97A071E
:102400008A07A9E19A0740F0C66005C0DE3F51F493
:10241000C3FD44C0C8606C2EBFEFCB1ADB0A7080CE
:10242000C62DC4CF2D2F2F7D2531C1F540814D32D2
:1024300011F4C06106C04B3221F0319621E030E04A
:1024400006C03296D60111964C9122E030E0A0ED04
:10245000A40FAA3018F0E21BF30B20C040E050E0BC
:102460004038BCE05B075CF49A01220F331F220F57
:10247000331F420F531F440F551F4A0F511D3196F2
:10248000DF0111972C91A0EDA20FAA3048F3C4FFF1
:1024900003C0519541955109040F151FC1FF07C095
:1024A000E114F10421F03197D701ED93FC930E94E0
:1024B000BD0DC370C33019F06B017C0106C06B0108
:1024C0007C01F7FAF094F7F8F09420E030E0A901ED
:1024D000C701B6010E94170D882309F445C017FFF4
:1024E00006C0119501951109C1E9D1E002C0C9EA00
:1024F000D1E05E01B8E1AB1AB1084601BE2DAF2DA7
:1025000090E2E92EF12C0E151F0584F0FE012591B5
:10251000359145915491B4018B2F9A2F0E94740EDE
:102520004B01B82FA92F0E191F09EDCF2497F59451
:10253000E794CA15DB0539F76401EB2EFA2E8E2DD0
:10254000880F8F2D881F8F3F49F020E030E0A901D0
:10255000C701B6010E94170D811106C082E290E00A
:102560009093840480938304C701B60109C060E09E
:1025700070E080E89FEF04C060E070E080EC9FE7CF
:10258000CDB7DEB7EEE00C94100F91110C94F6125B
:10259000803219F089508550C8F70895FB01DC019D
:1025A0004150504088F08D9181341CF08B350CF4F3
:1025B000805E659161341CF06B350CF4605E861BA7
:1025C000611171F3990B0895881BFCCFDC01FC01AC
:1025D000672F71917723E1F7329704C07C916D9357
:1025E00070836291AE17BF07C8F3089599278827B3
:1025F0000895DC01CB01FC01F999FECF06C0F2BDC4
:10260000E1BDF89A319600B40D9241505040B8F7B0
:102610000895F999FECF92BD81BDF89A992780B5AA
:102620000895DC01A40FB51F4150504048F0CB0184
:10263000840F951F2E910E94221341505040D0F7D5
:102640000895262FF999FECF92BD81BDF89A019782
:1026500000B4021639F01FBA20BD0FB6F894FA9AEA
:10266000F99A0FBE08950396272F0E9422130E9405
:102670002113252F0E942213242F0C94221301963C
:10268000272F0E9422130C9421130E94E10EA59F74
:10269000900DB49F900DA49F800D911D112408955D
:0426A000F894FFCFDC
:1026A400EA02EC02E7026D0663065E065506D60BE7
:1026B400A706AA0691067B060B02139A0C0F020DBD
:1026C4008709130216E00A1702147C0C1B02107A05
:1026D400081F02181F0B23020298082702079008FC
:1026E4002B0203A0082F0205A608B60106B2083380
:1026F40002087608360204BE083A020178083E024F
:102704000AC50842020B380946020CF3084A021AA9
:102714003B0B4E021B570B52021C730B56021D8FB0
:102724000B5A020E9A095E020FD50962021185083E
:1027340066021228096A021518096E0217F00A7255
:10274400021EC70B760220AB0B070221550A7C033D
:102754007B036D03E60244534300574B5000504142
:102764005200002F170B07030D0A004154230045A4
:102774004E44005765696768745363616C657334CC
:10278400004D424330342E33362E3500310053434E
:1027940052003132333400504E5500534E44004EF3
:1027A400414D00424155004D54500044434F0047B1
:1027B40042540044544D0053434F00565253004476
:1027C400415400525150005343510050524400436D
:1027D4004F4E004F4B0052505400504F4E00464154
:1027E4004400544F46004342540053474400554765
:1027F40044005047440050484E00534E4100425359
:102804005400485257004443480047434F00435440
:0A2814004D00504F460053524300A0
:00000001FF
